:020000040800F2
:10000000280400207D010008910900082F0900083C
:100010008D09000829090008ED0A00080000000009
:10002000000000000000000000000000BF09000800
:100030002D09000800000000BD090008C1090008E2
:100040009701000897010008970100089701000830
:100050009701000897010008970100089701000820
:100060009701000897010008970100089701000810
:100070009701000897010008970100089701000800
:100080009701000897010008000000009701000890
:1000900097010008970100089701000897010008E0
:1000A00097010008970100089701000897010008D0
:1000B0009701000800000000970100080000000000
:1000C0009701000800000000970100089701000850
:1000D0009701000897010008970100080000000040
:1000E00000000000000000009701000897010008D0
:1000F0009701000897010008970100089701000880
:1001000097010008000000000000000097010008AF
:1001100000000000000000000000000000000000DF
:1001200000000000000000000000000000000000CF
:1001300000000000000000000000000000000000BF
:1001400000000000000000000000000000000000AF
:10015000000000000000000097010008970100085F
:100160009701000897010008DFF80CD000F01EFB93
:1001700000480047091A0008280400200648804764
:1001800006480047FEE7FEE7FEE7FEE7FEE7FEE77C
:10019000FEE7FEE7FEE7FEE7C9090008690100087F
:1001A00030B480EA010202F0004530F0004221F054
:1001B000004013D090B1C30DD40DC2F31601C0F3AB
:1001C0001600E41A41F4000140F400027D3491422B
:1001D00001D3641C00E04900002C02DA30BC00208E
:1001E00070474FF400000023914201D3891A034362
:1001F00040084FEA4101F7D151B1914202D14FF08D
:10020000004105E002D24FF0010101E06FF0010171
:1002100003EBC450284430BC00F0EDB82DE9FE4F8C
:1002200081EA030404F0004421F0004100944FF0FF
:10023000000B23F0004350EA01045ED052EA0304AD
:100240005BD0C3F30A54C1F30A552C44A4F2F3342F
:100250000194A0FB0254C1F3130141F48011C3F3D4
:10026000130343F4801301FB024400FB034E840A92
:10027000970A44EA815447EA8357A4FB076802952A
:100280008D0A05FB07854FEA932C04FB0C542705C8
:10029000029D4FEA065847EA1637B5EB08056EEBA4
:1002A000070C870E920E47EA811742EA8312A7FBDA
:1002B0000201B6EB0B0164EB00042B0D43EA0C3397
:1002C0005E1844EB1C50DA465146E7FB0201C5F3C9
:1002D00013044FEA0B3343EA14534FEA0432019CF0
:1002E00043EA0603A4F10C040294009CCDE900B497
:1002F00000F0C7F803B0BDE8F08F00200146F9E731
:1003000096230022114600F07FB800F0004230F042
:1003100000400AD0C10D01F56071C0F3160042EA39
:100320000151C20840071143704700200146704741
:1003300001F0004330B421F0004150EA010206D040
:100340000A0DA2F56072C1F31301002A02DC30BC71
:1003500000207047440F44EAC104C100E01830BCDB
:1003600000EBC25000F047B830B50B460146002004
:100370002022012409E021FA02F59D4205D303FA67
:1003800002F5491B04FA02F52844151EA2F10102E8
:10039000F1DC30BD2DE9F05F0546002092469B461A
:1003A00088460646814640241BE02846414647468B
:1003B000224600F01CFA53465A46C01A914110D307
:1003C00011461846224600F003FA2D1A67EB010881
:1003D0004F4622460120002100F0FAF917EB0009F0
:1003E0004E41201EA4F10104DFDC484631462A4676
:1003F0004346BDE8F09F0029A8BF7047401C490054
:1004000008BF20F00100704710B4B0FA80FC00FA79
:100410000CF050EA010404BF10BC704749B1CCF1A4
:10042000200421FA04F411FA0CF118BF0121214330
:100430000843A3EB0C01CB1D4FEA00614FEA1020EB
:1004400042BF002010BC704700EBC350104400298D
:10045000A4BF10BC7047401C490008BF20F0010039
:1004600010BC704710B5141E73F1000408DA401C6C
:1004700041F1000192185B411A4301D120F00100C3
:1004800010BD2DE9F04D92469B4611B1B1FA81F2B3
:1004900002E0B0FA80F22032904600F099F904466A
:1004A0000F4640EA0A0041EA0B0153465A46084308
:1004B00013D0114653EA010019D0C8F1400250464A
:1004C00000F095F905460E4650465946424600F062
:1004D0007FF9084305D0012004E020463946BDE8F5
:1004E000F08D0020054346EAE0762C4337430A9816
:1004F0006305E40AA0EB08000022FD0A44EA475421
:100500000A3002D500200146E9E7010510196941CA
:10051000DDE9084500196941BDE8F04DA2E72DE984
:10052000FE4F804681EA0300C00F0C46009021F088
:10053000004123F00045B8EB0200A94105D2404636
:10054000214690461C460B46024623F000401043CD
:1005500047D0270DC7F30A00C3F30A510290401A8F
:10056000019040286BDAC3F3130040F4801B00981D
:10057000924620B10023D2EB030A63EB0B0B0198E8
:100580005946C0F14002504600F022F906460D4699
:1005900050465946019A00F03AF910EB08006141C3
:1005A000002487EA115284EAE7731A4340D0009A84
:1005B00062B3019A012A4FEA075215DC001B61EB76
:1005C00002014FF0004202EA0752CDE90042001C4E
:1005D00041F5801132462B46FFF753FF03B0BDE8CB
:1005E000F08F40462146F9E7001B61EB0201001C39
:1005F00041F5801300185B412018A2F5001747EB66
:10060000030140EAD570B6196D4111E06D084FEA5B
:10061000360645EAC0754FEA0752001B61EB02013E
:10062000001C41F5801149084FEA30000019514182
:1006300032462B4603B0BDE8F04FFFF713BF0098DA
:10064000012240000023D0EB020263EBE07300982C
:1006500021464FEAE074B8EB000061EB0401E9E7E2
:1006600083F000435BE781F0004158E72DE9F04D4E
:1006700081EA030404F0004B21F0004514464FF0DA
:10068000000A23F0004150EA050220D054EA01029A
:100690001DD0C5F30A570246C5F31303C1F3130077
:1006A000C1F30A5640F4801543F48013A7EB060803
:1006B000101BD64608F2FD3873EB050002D308F193
:1006C000010801E092185B41B8F1000F03DA002045
:1006D0000146BDE8F08D00204FF4801106468446A7
:1006E0000EE0171B73EB050705D3121B63EB050325
:1006F00006434CEA010C49084FEA300092185B416E
:1007000050EA0107EDD152EA030012D082EA040058
:1007100083EA0501084305D0101BAB4106D2012234
:10072000002306E000224FF0004302E06FF00102D8
:1007300053101AEB06004CEB085110EB0A0041EB8A
:100740000B01BDE8F04DFFF78DBEC1F30A52C1F3B6
:10075000130140F2FF3341F480119A4202DA002083
:100760000146704740F233439A42A2F2334202DC20
:10077000524200F03CB800F02BB8000030B5041E27
:1007800071F1000404DB4FF00044404264EB0101CE
:10079000141E73F1000405DB1C464FF00043524267
:1007A00063EB0403994208BF904230BD064C074DED
:1007B00006E0E06840F0010394E807009847103431
:1007C000AC42F6D3FFF7D4FC9C200008BC20000804
:1007D000202A04DB203A00FA02F100207047914001
:1007E000C2F1200320FA03F3194390407047202AF6
:1007F00004DB203A21FA02F00021704721FA02F3CB
:10080000D040C2F120029140084319467047202A87
:1008100006DBCB17203A41FA02F043EAE07306E028
:1008200041FA02F3D040C2F1200291400843194638
:10083000704710B540F2115001F0FCFA40F2096027
:1008400001F0F8FA032001F055F90F2300220321EB
:100850004FF0904001F08FF80421012000F0E0FDFE
:1008600007220021084600F0A5FE072201210846C4
:1008700000F0A0FE07220221084600F09BFE07229E
:100880000321084600F096FE0121084600F048FECC
:100890004FF46021012000F06DFE002000F0ECFD1F
:1008A0000421012000F0FAFD00F02CFE00F09AFD7A
:1008B00010BD000010B54FF4A06001F0BBFA00209D
:1008C00000F036FF1649002000F0A0FF1549002077
:1008D00000F06CFF0021084600F0DCFF4FF480615F
:1008E000002000F07FFF4FF48071002000F0AAFF8D
:1008F0004FF40051002000F0B9FF0421002000F067
:10090000EBFF002000F08CFF002000F059FF0020DA
:1009100000F0FCFE002000F0E7FE00F0E9FD10BD55
:100920004C2401400000002000BFFEE7704700BFDC
:10093000FEE7000010B540F2125001F07BFA40F2E1
:10094000125001F077FA0823002201210E4801F02D
:1009500012F81023002201210B4801F00CF80823A3
:1009600003220021084801F02DF810230322002162
:10097000054801F027F80821034800F0FAFF10218C
:10098000014800F0F6FF10BD0004004800BFFEE77C
:100990007047000010B5002807DA0A07140E054A50
:1009A00000F00F031B1FD45403E00A07130E024A82
:1009B000135410BD18ED00E000E400E070477047EC
:1009C00010B500F085FE10BD10B51D48006840F060
:1009D00001001B49086000BF1948006800F00200D0
:1009E0000028F9D016484068164908401449486064
:1009F0000846406814490840114948600846406864
:100A000020F44000486008460068104908400C493E
:100A100008600846C06A20F00F00C8620846006BF4
:100A200040F243118843064908630846406B20F0B2
:100A3000010048630020886001F07EFA10BD0000CC
:100A4000001002400C00FF08FFFFC277FFFFF2FE1C
:100A500010B540F2115001F0EDF940F20E6001F0D6
:100A6000E9F94FF4007201214FF0904000F052FF7D
:100A70004FF4806201214FF0904000F04BFF4FF4A3
:100A80000073012202214FF0904000F074FF4FF4F8
:100A90000073012200214FF0904000F093FF4FF4CB
:100AA0008063012202214FF0904000F064FF4FF478
:100AB0008063012200214FF0904000F083FF0A483C
:100AC00001F0A8FA4FF4E131074801F061FA08217A
:100AD000054801F0DBFA0421034801F0CFFA02488F
:100AE00001F0B8FA10BD00000038014000BFFEE779
:100AF0000FB4054B10B503A9044A029800F0DAF8C8
:100B000010BC5DF814FB0000ED1800081000002078
:100B100002E008C8121F08C1002AFAD170477047C6
:100B2000002001E001C1121F002AFBD17047000024
:100B30002DE9FF5F82B00021DDE90430020DDDF810
:100B400040B0034318D044F61050A2F2FF324243A3
:100B50001514119801281FD0A5EB0B00401C5FEA6B
:100B6000000A4FF000064E4FDFF83891B04650466D
:100B700015D5CAF1000413E0119801244AA30128F5
:100B800001D16FEA0B010298119AC0E90031C0E966
:100B9000024206B0BDE8F09FCBF10000DFE704465B
:100BA0000021404A491842EB0450CDE9001012E000
:100BB000E00707D032463B4640464946FFF72EFB4A
:100BC0008046894632463B4610461946FFF726FBCB
:100BD00006460F466410002CEAD1DDE90401DDE988
:100BE0000023BAF1000F06DAFFF718FB42464B4626
:100BF000FFF714FB05E0FFF739FD42464B46FFF7D0
:100C000035FD04460E460022284BFFF7B7FD03D8FA
:100C10004FF0FF30014607E00022254B20463146C9
:100C2000FFF77DFCFFF791FD102409E0002C0ADBA3
:100C30000A220023FFF7AEFB039B30321A55641ED5
:100C400050EA0102F2D1641C039AC4F11103144466
:100C5000119A012A03D0012208430DD10AE008436A
:100C600004D000204FF0110B119072E7A3EB0B059D
:100C70006D1E0DE05B4504DD4FF0000205F101053E
:100C800004E003DA4FF00002A5F10105002AECD0E0
:100C900002981199C0E90231C0E9004579E70000E6
:100CA000000014400000F03F300000000000F0435E
:100CB0000000E03F2DE9FF4F95B09B468946064670
:100CC00000250FE2252877D100242746F84A012184
:100CD000059400E0044316F8013F203B01FA03F0BD
:100CE0001042F7D130782A2811D06FF02F033078D6
:100CF000A0F13002092A16D8059A44F0020402EB4A
:100D0000820203EB42021044761C0590EFE759F88B
:100D1000042B0592002A03DA504244F40054059053
:100D200044F00204761C30782E2816D116F8010FF4
:100D300044F004042A280DD06FF02F023078A0F17F
:100D40003003092B09D807EB870302EB4303C718CD
:100D5000761CF3E759F8047B761C30786C280FD0AA
:100D600006DC4C2817D068280DD06A2814D104E07E
:100D7000742810D07A280FD10DE044F400140AE052
:100D800044F4801401E044F440147278824202D1A9
:100D900004F58014761C761C307866280BD013DCA2
:100DA000582877D009DC002875D04528F6D0462889
:100DB000F4D047281AD19DE118E0632835D0642883
:100DC00079D0652812D195E1702873D008DC6728A6
:100DD000F1D069286FD06E280DD06F2806D1B5E00C
:100DE00073282CD0752875D0782874D05A46179956
:100DF00090476D1C75E1C4F30250022809D0032806
:100E00000DD0D9F8001004280DD00D6009F10409A7
:100E100067E1D9F80010EA17C1E90052F6E7D9F8FE
:100E200000100D80F2E70D70F0E719F8041B8DF843
:100E3000001000208DF80100EA46012003E059F877
:100E400004AB4FF0FF3061074FF0000102D40DE01A
:100E500008F101018846B9420FDA8045F8DB1AF83B
:100E600008100029F4D108E008F101018846814208
:100E7000FADB1AF808100029F6D105985B46A0EBBA
:100E8000080721463846179A00F094FA284400EBE8
:100E9000080507E04DE029E10DE01AF8010B5A467C
:100EA00017999047B8F10108F7D25B4621463846BA
:100EB000179A13E142E00A220092C4F302524FF063
:100EC000000A022A08D059F804CB032A4FEAEC7131
:100ED0000AD00DE029E02AE009F1070121F007021C
:100EE000F2E802C1914609E00FFA8CFC4FEAEC717E
:100EF000042A03D14FFA8CFC4FEAEC71002907DA7F
:100F00000A460021DCF1000C61EB02012D2202E017
:100F1000220504D52B228DF80420012203E0E207EC
:100F200001D02022F7E7904659E00A2102E0102282
:100F30000DE010214FF0000A00910BE010224FF05D
:100F4000000A44F004040827009203E008224FF04E
:100F5000000A0092C4F30252022A05D059F804CBC9
:100F60000021032A08D009E009F1070121F0070256
:100F7000F2E802C1914605E01FFA8CFC042A01D177
:100F80000CF0FF0C4FF00008220728D5702806D07F
:100F9000009B83F0100353EA0A0305D00EE04022C1
:100FA0008DF80420012208E05CEA010206D030221C
:100FB0008DF804208DF8050002229046009B83F0F6
:100FC000080353EA0A030AD15CEA010201D162076D
:100FD00005D530228DF804204FF001087F1E5828D7
:100FE00004D034A003900EA802900DE036A0F9E7DB
:100FF00053466046009AFFF7CDF984460398825C19
:101000000298401E029002705CEA0100F0D1029842
:1010100006A9081A00F1200A600702D524F48034DA
:1010200000E00127574502DDA7EB0A0000E00020A1
:1010300000EB0A01009005984144401A0590E00336
:1010400006D45B462146179A059800F0B3F905448B
:10105000002706E001A85A46C05D179990476D1C0D
:101060007F1C4745F6DBE0030CD55B462146179A0B
:10107000059800F09FF9054404E030205A4617997E
:1010800090476D1C0099481E00900029F5DC08E08F
:10109000029802995A460078491C02911799904784
:1010A0006D1CBAF10001AAF1010AF1DC65E1000052
:1010B000092801003031323334353637383961622E
:1010C00063646566000000003031323334353637F2
:1010D00038394142434445460000000000F058F9C9
:1010E0000544761C307800287FF4ECAD19B0284612
:1010F000BDE8F08F620700D4062709F1070222F04D
:10110000070CFCE80223E14603F000485FEA080C04
:1011100002D00FF2702C0DE05FEA045C02D50FF2F2
:10112000682C07E05FEAC47C02D00FF2602C01E07B
:10113000AFF2700C4FF0FF3823F00043CDF850C0F1
:1011400065280CD006DC452809D046281DD0472844
:101150003DD13DE0662818D067287ED138E00021D7
:10116000112F01DB112000E0781CCDE9000106A958
:101170000EA8FFF7DDFCDDE90F010E9A03910021B7
:10118000009207F1010A04914DE04FF000400097F2
:10119000CDE9011006A90EA8FFF7CAFCDDE90F0290
:1011A00003920E9B11990022DDF80CA0009304928B
:1011B00011B9791C00EB010AB7EB0A0004D4C0F1A5
:1011C000FF3007F1010A0490AAEB0700019044E008
:1011D000012F00DA01270021112F01DD112000E08D
:1011E0003846CDE9000106A90EA8FFF7A1FCDDE90C
:1011F0000F010E9A0391002104910092BA46210733
:101200000CD40399514500DA8A46BAF1010F05DD85
:10121000009AAAF10101515C302908D0B84202DAE3
:1012200010F1040F06DA0121CDE9011015E0AAF151
:101230000101E9E7002805DC049901440491AAEBC7
:10124000000102E0411C514500DD8A460499401A24
:10125000401C01904FF000400290200704D40198F8
:10126000504501DBCDF8048000208DF84F00029836
:101270000DF14F07B0F1004F25D02B200E900298B2
:101280004FF0020800280CDA404202902D200E9008
:1012900007E00A210298FFF767F83031029007F85B
:1012A000011DB8F10001A8F10108F2DC0298002844
:1012B000EFD1791E0E980870307800F0200040F0D1
:1012C000450007F8020D12A8C01B00F1070814988A
:1012D000007800B1012000EB0A01019801EBE071F8
:1012E00005984144401A401E0590E00306D45B4631
:1012F0002146179A059800F05DF805441498007887
:1013000018B15A46179990476D1CE00324D55B46E7
:101310002146179A059800F04DF805441CE0049802
:10132000002807DBDDE90301884203DD0098405C0B
:10133000179901E0179930205A469047049805F113
:101340000105401C04900198401E019004D12E20FC
:101350005A46179990476D1CBAF10001AAF1010A8B
:10136000DDDC05E017F8010B5A46179990476D1C14
:10137000B8F10001A8F10108F4DC5B462146179A98
:101380000598ABE62D0000002B00000020000000B7
:101390002DE9F041044600251E461746880404D472
:1013A00005E039462020B0476D1C641EF9D528465B
:1013B000BDE8F0812DE9F041044600251E46904627
:1013C000C80301D5302700E02027880404D505E0B4
:1013D00041463846B0476D1C641EF9D52846BDE825
:1013E000F08100000D48006840F008000B490860DB
:1013F00000BF0A48006800F008000028F9D107483B
:10140000006840F004000549086000BF0348006818
:1014100000F004000028F9D17047000008240140C2
:10142000012802D0022821D10EE0124A13684A1E78
:1014300023EA02520F4B1A601A4613684A1E43EA07
:1014400002520C4B1A6012E00A4A0C3213684A1E10
:1014500023EA0252074B0C331A601A4613684A1EDD
:1014600043EA0252034B0C331A6000E000BF00BF96
:10147000704700002C24014030B10749096841F44D
:101480000061054A116005E00349096821F4006123
:10149000014A11607047000008240140134A126895
:1014A00022F4C052114B1A60012802D002281AD12E
:1014B00012E00E4A126822F460420C4B1A601A467F
:1014C00013684A1E43EA4232084B1A601A461268F1
:1014D00042F400621A6007E0044A126842F4805243
:1014E000024B1A6000E000BF00BF704704240140B7
:1014F0000348006840F480700149086070470000AC
:10150000082401400548006800F0010028B903489C
:10151000006840F00100014908607047082401405C
:1015200091B100F001022AB1114A126842F480120E
:101530000F4B1A6000F00202C2B10D4A126842F469
:1015400000420B4B1A6011E000F001022AB1084A78
:10155000126822F48012064B1A6000F002022AB1CF
:10156000034A126822F40042014B1A6070470000DF
:1015700008240140012802D0022816D10AE00C4AB2
:10158000126822F460220A4B1A601A4612680A4353
:101590001A600BE0064A126822F4E042044B1A601B
:1015A0001A4612680A431A6000E000BF00BF704785
:1015B0000824014070B51446122900D100210628E4
:1015C0000ED2324D2A6800EB80061F25B540AA4393
:1015D00000EB800501FA05F52A432C4D2A602AE02C
:1015E0000C2812D2294D2D1F2A68851F05EB850670
:1015F0001F25B540AA43851F05EB850501FA05F5B2
:101600002A43224D2D1F2A6015E0102813D21F4DAA
:10161000083D2A68A0F10C0505EB85061F25B5409D
:10162000AA43A0F10C0505EB850501FA05F52A434F
:10163000164D083D2A600A2910D2144D243D2B680E
:1016400001EB41060725B540AB4301EB410504FA28
:1016500005F52B430D4D243D2B6015E0122913D2C7
:101660000A4D283D2B68A1F10A0505EB4506072523
:10167000B540AB43A1F10A0505EB450504FA05F5B4
:101680002B43024D283D2B6070BD000034240140E7
:1016900000F0010129B10849096841F48001064AB6
:1016A000116000F0020129B10349096841F40011F9
:1016B000014A116070470000082401400349086096
:1016C00000BF024909680029FBD1704708000020CB
:1016D0000448006820B103480068401E01490860C2
:1016E000704700000800002000EB8001064A02EB72
:1016F0008101896841F0010100EB8002024B03EB9C
:1017000082029160704700000000024000EB8001FF
:10171000064A02EB8101896841F0200100EB80025A
:10172000024B03EB82029160704700000000024010
:1017300000EB8001144A02EB8101896821F001016C
:1017400000EB8002104B03EB82029160002100EB62
:10175000800203EB8202916000EB800203EB8202C5
:10176000D16000EB800203EB8202116100EB80028A
:1017700003EB820251611946496883000F229A40A7
:101780001143014A516070470000024010B5024603
:10179000054B1B68940001FA04F423400BB10120AF
:1017A00000E0002010BD00000000024000EB8002BD
:1017B000024B03EB820251617047000000000240BF
:1017C00000EB8001064A02EB8101896841F080014B
:1017D00000EB8002024B03EB820291607047000035
:1017E0000000024010B50A4600EB8003064C04EBF3
:1017F0008303996821F44061114300EB800304EBFB
:101800008303996010BD00000000024000EB8002DD
:10181000024B03EB8202116170470000000002409E
:1018200000EB8001064A02EB8101896821F040014A
:1018300000EB8002024B03EB8202916070470000D4
:101840000000024010B50A4600EB8003064C04EB92
:101850008303996821F44071114300EB800304EB8A
:101860008303996010BD00000000024010B50A46D5
:1018700000EB8003064C04EB8303996821F440518C
:10188000114300EB800304EB8303996010BD00005B
:101890000000024010B571B900EB80020D4B03EB64
:1018A0008202926822F0100200EB8003094C04EBE4
:1018B00083039A600DE000EB8002064B03EB82028B
:1018C000926842F0100200EB8003024C04EB8303A9
:1018D0009A6010BD0000024000EB8002024B03EB57
:1018E0008202D160704700000000024070B50446DB
:1018F0000D46E1B2064800F089FB00BF40F20771D7
:10190000034800F0ACFB0028F8D0204670BD000072
:1019100000380140F0B503461C6A5D6A00200DE006
:101920000126864016403EB187000F26BE40B443D4
:10193000860001FA06F63443461CB0B20828EFD3FD
:10194000082011E00126864016405EB1A0F108068D
:10195000B7000F26BE40B543A0F10806B60001FA55
:1019600006F63543461CB0B21028EBD31C625D620C
:10197000F0BD81617047F0B504460D4616462168FA
:10198000E268002019E0012787401F409FB14FEA1D
:10199000400C032707FA0CF7B943470005FA07F78D
:1019A00039434FEA400C032707FA0CF7BA434700C4
:1019B00006FA07F73A43471CB8B21028E3D3216070
:1019C000E260F0BDF0B50C461546012C03D1466827
:1019D0001E43466002E046689E43466082680021DE
:1019E0000DE001268E401E403EB14F000326BE4052
:1019F000B2434E0005FA06F632434E1CB1B210292E
:101A0000EFD38260F0BD000000F09AFAFEF792FF7B
:101A1000FFF71EF8FEF70DFFFEF74CFF45E0012033
:101A2000FFF736FE00BF02210020FFF7AFFE0028BF
:101A3000F9D000242DE01D4931F81400FEF760FCB8
:101A400082464FF08B41FEF7ABFB8146FEF75DFC13
:101A500007464FF06632164BFEF7E0FB0546FEF7F1
:101A600067FC144941F82400104830F8142021463E
:101A700011A0FFF73DF80F4951F82400FEF745FC8F
:101A800005462A460B46214612A0FFF731F8601C96
:101A9000C4B2042CCFDB1648006880F0080014495B
:101AA00008604FF4FA70FFF709FEB8E70000002065
:101AB00066660A4014000020746865206164635FF4
:101AC00076616C7565315B25645D206973202564E2
:101AD0000D0A000074686520766F6C5F76616C7526
:101AE000656C5B25645D2069732025660D0A000026
:101AF000140400482449496821F44041224A5160B5
:101B00001146096B21F480711163052839D2DFE891
:101B100000F0030A14202C001B49096B21F480718A
:101B2000194A11632EE018494968174A5160114655
:101B3000096B41F48071116324E01349496841F451
:101B40008041114A51601146096B41F48071116363
:101B500018E00D49496841F400410B4A51601146B3
:101B6000096B41F4807111630CE00749496841F445
:101B70004041054A51601146096B41F4807111637F
:101B800000E000BF00BF7047001002402DE9F04F99
:101B90008FB004464FF0000CE046002000220025E4
:101BA0008146CDF838900021CDF83490CDF83090B2
:101BB000CDF82C900023CDF82890CDF82490CDF8C6
:101BC0002090002600270FF24C2999E8004CD9F804
:101BD0000C90CDE905BECDF810A0CDF81C900FF209
:101BE000382ADAE9009ACDE9029A0FF22C2ADAE9CA
:101BF000009ACDE9009ADFF82C92D9F80490C9F345
:101C0000810CBCF1000F06D0BCF1010F05D0BCF176
:101C1000020F3FD103E0844A3EE0834A3CE0DFF814
:101C20000492D9F80490C9F38343DFF8F891D9F806
:101C30000490C9F3C069CDF82890DDF82890B9F177
:101C4000000F01D0113300E09B1CDFF8D891D9F8C8
:101C50000490C9F30049CDF82490DDF82490B9F13F
:101C6000000F12D0DFF8BC91D9F82C9009F00F09C1
:101C700009F10109CDF82090DFF8ACA1DDF8209042
:101C8000BAFBF9F909FB03F203E0DFF8A09103FBCB
:101C900009F201E0644A00BF00BFDFF88891D9F87B
:101CA0000490C9F303160DF1100919F8067022FA11
:101CB00007F5DFF87091D9F80490C9F302260DF109
:101CC000080919F8067025FA07F9CDF83890DFF8F9
:101CD0005491D9F80490C9F3C2261DF8067025FA6C
:101CE00007F1072C72D2DFE804F00406080A0C475B
:101CF0005B00104689E0284687E00E9885E008469C
:101D000083E0DFF82091D9F8309009F48079B9F5B3
:101D1000807F04D0DFF81891CDF834902AE0DFF806
:101D20000491D9F80490C9F38138B8F1000F09D0B3
:101D3000B8F1010F0BD0B8F1020F0DD0B8F1030FBD
:101D400016D110E04FEA5109CDF8349011E04FEA76
:101D50009109CDF834900CE04FF00609B1FBF9F988
:101D6000CDF8349005E04FEAD109CDF8349000E089
:101D700000BF00BF0D9848E0DFF8A890D9F8309078
:101D800009F04009B9F1400F04D048F21209CDF82A
:101D9000309003E04FF40049CDF830900C9834E0D7
:101DA000DFF88090D9F8309009F00309B9F1000FFD
:101DB00001D10B9126E0DFF86C90D9F8309009F052
:101DC0000309B9F1010F02D10B921BE01CE0DFF80F
:101DD0005490D9F8309009F00309B9F1020F04D1F9
:101DE0004FF40049CDF82C900CE0DFF83890D9F88A
:101DF000309009F00309B9F1030F03D1DFF82890FF
:101E0000CDF82C900B9800E000BF00BF0FB0BDE8EC
:101E1000F08F000000000000000000000102030439
:101E2000060708090010024000127A0000093D0070
:101E3000809FD500064A02EB9011096800F01F034D
:101E400001229A401143024B03EB9012116070473C
:101E500000100240064A02EB9011096800F01F03CF
:101E600001229A409143024B03EB9012116070479C
:101E700000100240064A02EB9011096800F01F03AF
:101E800001229A401143024B03EB901211607047FC
:101E90000010024000200021254A126842F48032DE
:101EA000234B1A6000BF401C214A126802F4003123
:101EB00011B9B0F5006FF6D11D4A126802F4003274
:101EC00002B970471A4A5268194B5A601A4652684A
:101ED0005A601A4652685A601A465268154B1A40A0
:101EE000134B5A601A46526842F4E8125A601A4676
:101EF000126842F080721A6000BF0D4A126802F048
:101F00000072002AF9D00A4A526822F00302084BF4
:101F10005A601A46526842F002025A6000BF044AF0
:101F2000526802F00802002AF9D000BFC9E7000099
:101F300000100240FFFFC27710B5FFF7ABFF10BDE6
:101F400010B5124800684FF47A71B0FBF1F4601ECE
:101F5000B0F1807F01D301200FE0601E4FF0E0213F
:101F600048610F214FF0FF30FEF714FD00204FF0C5
:101F7000E021886107200861002008B100BFFEE76A
:101F80000021481EFEF706FD10BD00000C000020D9
:101F90002DE9F04704460D460027B846B94600260D
:101FA0001948204438B1B0F5744F09D10620FFF725
:101FB000EDFD074605E00220FFF7E8FD074600E0DB
:101FC00000BF00BF206800F4004070B1780000EB53
:101FD0005500B0FBF5F64FF6F07006EA0008C6F3C0
:101FE000420948EA0900E0600CE007EB5500B0FB4D
:101FF000F5F64FF6F07006EA000806F00F0948EA19
:102000000900E060BDE8F08700BCFFBFC1F3080233
:102010008262704710B504460D48204458B1B0F5AF
:10202000744F11D140F20E30FFF724FF40F20E3012
:10203000FFF710FF09E040F21140FFF71BFF40F2ED
:102040001140FFF707FF00E000BF00BF10BD000018
:1020500000BCFFBF016841F001010160704710B58D
:10206000024602EB9110006801F01F040123A34017
:10207000184008B1012010BD0020FCE7026822F0E2
:102080000402026002680A4302607047026822F09C
:102090000802026002680A4302607047BC20000820
:1020A0000000002014000000100B0008D0200008E1
:1020B0001400002014040000200B000800000000A1
:1020C000000000000000000000A24A040000000020
:040000050800017D71
:00000001FF
