:020000040800F2
:100000001804002081010008850A00081D0A000864
:10001000810A000861090008090C000800000000BE
:10002000000000000000000000000000B30A00080B
:10003000E109000800000000B10A0008B50A000844
:100040009B0100089B0100089B0100089B01000820
:100050009B0100089B0100089B0100089B01000810
:100060009B0100089B0100089B0100089B01000800
:100070009B0100089B0100089B0100089B010008F0
:10008000450B00089B010008000000009B010008D0
:100090009B0100089B0100089B0100089B010008D0
:1000A0009B0100089B0100089B0100089B010008C0
:1000B0009B010008000000009B01000800000000F8
:1000C0009B010008000000009B0100089B01000844
:1000D0009B0100089B0100089B0100080000000034
:1000E00000000000000000009B0100089B010008C8
:1000F0009B0100089B0100089B0100089B01000870
:100100009B01000800000000000000009B010008A7
:1001100000000000000000000000000000000000DF
:1001200000000000000000000000000000000000CF
:1001300000000000000000000000000000000000BF
:1001400000000000000000000000000000000000AF
:1001500000000000000000009B0100089B01000857
:100160009B0100089B010008DFF810D000F048FB5D
:1001700000480047811B0008AFF3008018040020EE
:100180000648804706480047FEE7FEE7FEE7FEE731
:10019000FEE7FEE7FEE7FEE7FEE7FEE7BD0A000832
:1001A0006901000830B480EA010202F0004530F035
:1001B000004221F0004013D090B1C30DD40DC2F322
:1001C0001601C0F31600E41A41F4000140F40002E5
:1001D0007D34914201D3641C00E04900002C02DA16
:1001E00030BC002070474FF400000023914201D33F
:1001F000891A034340084FEA4101F7D151B19142B6
:1002000002D14FF0004105E002D24FF0010101E0C0
:100210006FF0010103EBC450284430BC00F085B9F5
:100220002DE9FE4F81EA030404F0004421F000416F
:1002300000944FF0000B23F0004350EA01045ED01D
:1002400052EA03045BD0C3F30A54C1F30A552C44A9
:10025000A4F2F3340194A0FB0254C1F3130141F45E
:100260008011C3F3130343F4801301FB024400FB2A
:10027000034E840A970A44EA815447EA8357A4FB51
:10028000076802958D0A05FB07854FEA932C04FB4E
:100290000C542705029D4FEA065847EA1637B5EB7E
:1002A00008056EEB070C870E920E47EA811742EAAB
:1002B0008312A7FB0201B6EB0B0164EB00042B0DCC
:1002C00043EA0C335E1844EB1C50DA465146E7FB18
:1002D0000201C5F313044FEA0B3343EA14534FEA08
:1002E0000432019C43EA0603A4F10C040294009C2E
:1002F000CDE900B400F05FF903B0BDE8F08F002055
:100300000146F9E72DE9F04D81EA030404F0004BC2
:1003100021F0004514464FF0000A23F0004150EA56
:10032000050220D054EA01021DD0C5F30A57024647
:10033000C5F31303C1F31300C1F30A5640F480154B
:1003400043F48013A7EB0608101BD64608F2FD38CD
:1003500073EB050002D308F1010801E092185B413C
:10036000B8F1000F03DA00200146BDE8F08D00204F
:100370004FF48011064684460EE0171B73EB050709
:1003800005D3121B63EB050306434CEA010C490835
:100390004FEA300092185B4150EA0107EDD152EA72
:1003A000030012D082EA040083EA0501084305D065
:1003B000101BAB4106D20122002306E000224FF0C1
:1003C000004302E06FF0010253101AEB06004CEB01
:1003D000085110EB0A0041EB0B01BDE8F04D00F0B5
:1003E000DBB896230022114600F0A8B8C1F30A52E8
:1003F00010B5C1F3130140F2FF3341F480119A426A
:1004000001DA002010BD40F233439A42A2F2334297
:1004100003DC524200F079F810BD904010BD00F0AE
:10042000004230F000400AD0C10D01F56071C0F308
:10043000160042EA0151C2084007114370470020EC
:100440000146704701F0004330B421F0004150EA0A
:10045000010206D00A0DA2F56072C1F31301002A51
:1004600002DC30BC00207047440F44EAC104C100E4
:10047000E01830BC00EBC25000F057B830B50B4666
:10048000014600202022012409E021FA02F59D42C4
:1004900005D303FA02F5491B04FA02F52844151E98
:1004A000A2F10102F1DC30BD2DE9F05F054600202C
:1004B00092469B4688460646814640241BE02846D5
:1004C00041464746224600F020F853465A46C01A95
:1004D000914110D311461846224600F0A3F92D1A77
:1004E00067EB01084F4622460120002100F09AF9EF
:1004F00017EB00094E41201EA4F10104DFDC484641
:1005000031462A464346BDE8F09F202A04DB203AC4
:1005100021FA02F00021704721FA02F3D040C2F123
:10052000200291400843194670470029A8BF704730
:10053000401C490008BF20F00100704710B4B0FA19
:1005400080FC00FA0CF050EA010404BF10BC7047B4
:1005500049B1CCF1200421FA04F411FA0CF118BFCE
:10056000012121430843A3EB0C01CB1D4FEA00619D
:100570004FEA102042BF002010BC704700EBC35070
:1005800010440029A4BF10BC7047401C490008BF9C
:1005900020F0010010BC704710B5141E73F1000468
:1005A00008DA401C41F1000192185B411A4301D165
:1005B00020F0010010BD2DE9F04D92469B4611B18F
:1005C000B1FA81F202E0B0FA80F22032904600F0F7
:1005D00029F904460F4640EA0A0041EA0B01534656
:1005E0005A46084313D0114653EA010019D0C8F106
:1005F00040025046FFF789FF05460E4650465946D1
:10060000424600F00FF9084305D0012004E02046DF
:100610003946BDE8F08D0020054346EAE0762C43DC
:1006200037430A986305E40AA0EB08000022FD0A9C
:1006300044EA47540A3002D500200146E9E70105A3
:1006400010196941DDE9084500196941BDE8F04D1F
:10065000A2E72DE9FE4F804681EA0300C00F0C4659
:10066000009021F0004123F00045B8EB0200A941C1
:1006700005D24046214690461C460B46024623F0D2
:100680000040104347D0270DC7F30A00C3F30A51B7
:100690000290401A019040286BDAC3F3130040F433
:1006A000801B0098924620B10023D2EB030A63EB33
:1006B0000B0B01985946C0F14002504600F0B2F8C9
:1006C00006460D4650465946019A00F0BAF810EB1E
:1006D00008006141002487EA115284EAE7731A4353
:1006E00040D0009A62B3019A012A4FEA075215DC02
:1006F000001B61EB02014FF0004202EA0752CDE914
:100700000042001C41F5801132462B46FFF753FF93
:1007100003B0BDE8F08F40462146F9E7001B61EBCE
:100720000201001C41F5801300185B412018A2F55E
:10073000001747EB030140EAD570B6196D4111E08F
:100740006D084FEA360645EAC0754FEA0752001BAE
:1007500061EB0201001C41F5801149084FEA3000AD
:100760000019514132462B4603B0BDE8F04FFFF768
:1007700013BF0098012240000023D0EB020263EB7C
:10078000E073009821464FEAE074B8EB000061EB9B
:100790000401E9E783F000435BE781F0004158E79B
:1007A000C1F30A52C1F3130140F2FF3341F4801147
:1007B0009A4202DA00200146704740F233439A42DF
:1007C000A2F2334202DC5242FFF79FBE00F02AB889
:1007D00030B5041E71F1000404DB4FF000444042C8
:1007E00064EB0101141E73F1000405DB1C464FF09D
:1007F0000043524263EB0403994208BF904230BD6C
:10080000064C074D06E0E06840F0010394E807005D
:1008100098471034AC42F6D3FFF7AAFCA424000892
:10082000C4240008202A04DB203A00FA02F1002048
:1008300070479140C2F1200320FA03F3194390401E
:100840007047202A06DBCB17203A41FA02F043EA30
:10085000E07306E041FA02F3D040C2F12002914079
:10086000084319467047000010B540F2125001F0DD
:1008700001FC40F2115001F0FDFB40F2096001F073
:10088000F9FB032001F056FA012300220321164848
:1008900001F02DF92023002203214FF0904001F0B8
:1008A00026F90221012000F035FE00220821104621
:1008B00000F0FAFE00220521012000F0F5FE0121E2
:1008C000084600F0A7FE4FF46021012000F0CCFEA6
:1008D000002000F04BFE0221012000F059FE00F044
:1008E0008BFE00F0F9FD10BD0004004810B54FF478
:1008F000A06001F0BFFB002000F0D6FF16490020E9
:1009000001F040F81549002001F00CF800210846DC
:1009100001F07CF84FF48061002001F01FF84FF4E3
:100920008071002001F04AF84FF40051002001F0DE
:1009300059F80221002001F08BF8002001F02CF87A
:10094000002000F0F9FF002000F09CFF002000F0E4
:1009500087FF00F047FE10BD4C240140000000203E
:1009600000BFFEE710B540F2115001F083FB40F2EA
:100970001D7001F07FFB1023002203214FF09040F7
:1009800001F0B5F8382000F047FF00F031FF0021FA
:10099000084600F00DFF00F021FF00F033FF10BD0E
:1009A0002DE9F05F82465046FFF739FD80464FF053
:1009B0006632094BFFF7A6FC06460022074BFFF7FD
:1009C0002FFC0446FFF712FD83461FFA8BF100202F
:1009D00000F0EEFEBDE8F09F66660A400000B04001
:1009E000704700000C48007800F0080090B10A48F9
:1009F000183800780007000D0749091F097840EAF8
:100A0000D1000549097801F00701012202EB4111EB
:100A1000084370470020FCE7E8FF0FE000BFFEE757
:100A200010B540F2115001F025FB40F2125001F0D8
:100A300021FB8023002201214FF0904001F057F864
:100A40001023002201210D4801F051F880230322D8
:100A500000214FF0904001F071F810230322002193
:100A6000064801F06BF880214FF0904001F03DF80E
:100A70001021024801F039F810BD000000040048C0
:100A800000BFFEE77047000010B5002807DA0A072C
:100A9000140E054A00F00F031B1FD45403E00A078D
:100AA000130E024A135410BD18ED00E000E400E0FC
:100AB0007047704710B500F0C7FE10BD10B51D4857
:100AC000006840F001001B49086000BF1948006839
:100AD00000F002000028F9D0164840681649084086
:100AE0001449486008464068144908401149486064
:100AF0000846406820F440004860084600681049F5
:100B000008400C4908600846C06A20F00F00C8621F
:100B10000846006B40F243118843064908630846C3
:100B2000406B20F0010048630020886001F00EFB5C
:100B300010BD0000001002400C00FF08FFFFC2774C
:100B4000FFFFF2FE10B50221074801F021FC012051
:100B500000F018FE4FF09040406980F080004FF0A8
:100B60009041486110BD00000004004010B540F203
:100B7000115001F07FFA40F20E6001F07BFA4FF461
:100B8000007201214FF0904000F080FF4FF400739D
:100B9000012202214FF0904000F0A9FF4FF40073B2
:100BA000012200214FF0904000F0C8FF4FF4806216
:100BB00001214FF0904000F069FF4FF48063012263
:100BC00002214FF0904000F092FF4FF48063012229
:100BD00000214FF0904000F0B1FF0A4801F01EFCE8
:100BE0004FF4E131074801F0D7FB0821054801F037
:100BF00051FC0421034801F045FC024801F02EFCA1
:100C000010BD00000038014000BFFEE70FB4054BE7
:100C100010B503A9044A029800F0DAF810BC5DF898
:100C200014FB0000651A00081400002002E008C848
:100C3000121F08C1002AFAD170477047002001E056
:100C400001C1121F002AFBD1704700002DE9FF5F90
:100C500082B00021DDE90430020DDDF840B003432D
:100C600018D044F61050A2F2FF32424315141198E6
:100C700001281FD0A5EB0B00401C5FEA000A4FF0D3
:100C800000064E4FDFF83891B046504615D5CAF1F0
:100C9000000413E0119801244AA3012801D16FEA4E
:100CA0000B010298119AC0E90031C0E9024206B076
:100CB000BDE8F09FCBF10000DFE704460021404A89
:100CC000491842EB0450CDE9001012E0E00707D0CC
:100CD00032463B4640464946FFF7A2FA80468946DF
:100CE00032463B4610461946FFF79AFA06460F462B
:100CF0006410002CEAD1DDE90401DDE90023BAF13A
:100D0000000F06DAFFF78CFA42464B46FFF788FAE7
:100D100005E0FFF7F7FA42464B46FFF7F3FA0446C1
:100D20000E460022284BFFF753FD03D84FF0FF304B
:100D3000014607E00022254B20463146FFF789FC9B
:100D4000FFF72EFD102409E0002C0ADB0A22002305
:100D5000FFF7AAFB039B30321A55641E50EA0102CA
:100D6000F2D1641C039AC4F111031444119A012AAC
:100D700003D0012208430DD10AE0084304D000202B
:100D80004FF0110B119072E7A3EB0B056D1E0DE0F8
:100D90005B4504DD4FF0000205F1010504E003DAD4
:100DA0004FF00002A5F10105002AECD0029811993C
:100DB000C0E90231C0E9004579E7000000001440B5
:100DC0000000F03F300000000000F0430000E03F72
:100DD0002DE9FF4F95B09A46884606460025EEE17C
:100DE000252877D100242746F94A0121039400E001
:100DF000044316F8013F203B01FA03F01042F7D1FB
:100E000030782A2811D06FF02F033078A0F130020B
:100E1000092A16D8039A44F0020402EB820203EB7B
:100E200042021044761C0390EFE758F8042B03921B
:100E3000002A03DA504244F40054039044F00204C0
:100E4000761C30782E2816D116F8010F44F00404D1
:100E50002A280DD06FF02F023078A0F13003092B33
:100E600009D807EB870302EB4303C718761CF3E7A7
:100E700058F8047B761C30786C280FD006DC4C28A0
:100E800017D068280DD06A2814D104E0742810D037
:100E90007A280FD10DE044F400140AE044F48014E1
:100EA00001E044F440147278824202D104F58014C7
:100EB000761C761C307866280BD013DC582877D047
:100EC00009DC002875D04528F6D04628F4D04728FC
:100ED0001AD193E118E0632835D0642879D06528C9
:100EE00012D18BE1702873D008DC6728F1D0692813
:100EF0006FD06E280DD06F2806D1ACE073282CD0AF
:100F0000752874D0782853D05246179990476D1C95
:100F100054E1C4F30250022809D003280DD0D8F8B8
:100F2000001004280DD00D6008F1040846E1D8F83F
:100F30000010EA17C1E90052F6E7D8F800100D805A
:100F4000F2E70D70F0E718F8041B8DF80010002090
:100F50008DF80100EB46012003E058F804BB4FF088
:100F6000FF3061074FF0000102D40DE009F10101EB
:100F70008946B9420FDA8145F8DB1BF809100029D0
:100F8000F4D108E009F1010189468142FADB1BF83E
:100F900009100029F6D103985346A0EB0907214612
:100FA0003846179A00F080FA284400EB090507E05C
:100FB00044E008E10DE01BF8010B524617999047F9
:100FC000B9F10109F7D2534621463846179AF2E0A3
:100FD00039E00A21C4F302524FF0000B0091022ABB
:100FE00006D058F8040BC117032A09D00AE023E001
:100FF00008F1070020F00702F2E80201904605E040
:1010000000B2C117042A01D140B2C117002906DA83
:101010000A460021404261EB02012D2202E0220536
:1010200004D52B228DF80420012203E0E20701D031
:101030002022F7E7914657E00A2100E010214FF007
:10104000000B00910BE010214FF0000B44F0040462
:101050000827009103E008204FF0000B0090C4F334
:101060000252022A05D058F8040B0021032A08D0A6
:1010700008E008F1070020F00702F2E802019046BC
:1010800003E080B2042A00D1C0B24FF00009220769
:101090002AD53278702A07D0DDF800C08CF0100C09
:1010A0005CEA0B0C05D00EE040228DF804200122F2
:1010B00008E050EA010306D030238DF804308DF8A3
:1010C000052002229146009B83F0080353EA0B039C
:1010D0000AD150EA010201D1620705D530228DF80C
:1010E00004204FF001097F1E3278582A04D039A21B
:1010F0000C920CAA02920BE03BA2F9E75B46009A25
:10110000FFF7D2F90C9B9B5C029A521E029213705D
:1011100050EA0102F2D1029804A9081A00F1200B4A
:10112000600702D524F4803400E001275F4502DD2A
:10113000A7EB0B0000E0002000EB0B0100900398F0
:101140004944401A0390E00306D453462146179AB7
:10115000039800F0A9F90544002706E001A85246CB
:10116000C05D179990476D1C7F1C4F45F6DBE0036F
:101170000CD553462146179A039800F095F905447B
:1011800004E030205246179990476D1C0099481E84
:1011900000900029F5DC08E0029802995246007898
:1011A000491C0291179990476D1CBBF10001ABF1EE
:1011B000010BF1DC5BE100F065F90544761C307849
:1011C00000287FF40DAE19B02846BDE8F08F00006E
:1011D000092801003031323334353637383961620D
:1011E00063646566000000003031323334353637D1
:1011F000383941424344454600000000600700D4AE
:10120000062708F1070020F00700F0E802238046D7
:1012100003F0004C5FEA0C0001D097A009E0200524
:1012200001D596A005E0E00701D095A001E0AFF25E
:101230004C001390307823F0004365280CD006DC76
:10124000452809D046281DD047287FD13BE0662895
:1012500018D067287AD136E00021112F01DB112048
:1012600000E0781CCDE9000104A90CA8FFF7EEFC12
:10127000DDE90D010C9A4FF0000B07F10109109206
:1012800000914EE04FF000400097CDE9011004A915
:101290000CA8FFF7DBFCDDE90D020C9B0F994FF06A
:1012A000000B91461093009211B9791C00EB0109D3
:1012B000B7EB090003D4C0F1FF3B07F10109A9EB2B
:1012C0000700019042E0012F00DA01270021112FD1
:1012D00001DD112000E03846CDE9000104A90CA889
:1012E000FFF7B4FCDDE90D010C9A00914FF0000B03
:1012F000B946109221070FD4009A4A4503DA914665
:1013000001E0A9F10109B9F1010F05DD109AA9F178
:101310000101515C3029F4D0B84202DA10F1040F17
:1013200003DA0121CDE9011010E0002803DC834439
:10133000A9EB000102E0411C494500DD8946A0EB14
:101340000B00401C01904FF000400290200705D494
:101350000198484502DB4FF0FF30019000208DF8E6
:101360004B0002980DF14B07B0F1004F25D0022041
:101370000C902B200D90029800280CDA404202902D
:101380002D200D9007E00A210298FFF777F8303101
:10139000029007F8011D0C99481E0C900029F2DC00
:1013A00002980028EFD1791E0D980870307800F06F
:1013B000200040F0450007F8020D11A8C01BC01D19
:1013C00002901398007800B1012000EB0901019808
:1013D00001EBE071029801440398401A401E03900B
:1013E000E00306D453462146179A039800F05CF8B0
:1013F00005441398007818B15246179990476D1C10
:10140000E00323D553462146179A039800F04CF881
:1014100005441BE0BBF1000F07DB0098584504DDD5
:101420001098179910F80B0001E0179930205246D8
:10143000904701980BF1010B401E05F10105019049
:1014400004D12E205246179990476D1CB9F1000126
:10145000A9F10109DEDC05E017F8010B52461799E6
:1014600090476D1C0299481E02900029F4DC5346F7
:101470002146179A03989EE62D0000002B000000DD
:10148000200000002DE9F041044600251E461746C5
:10149000880404D405E039462020B0476D1C641E42
:1014A000F9D52846BDE8F0812DE9F0410446002534
:1014B0001E469046C80301D5302700E02027880447
:1014C00004D505E041463846B0476D1C641EF9D589
:1014D0002846BDE8F08100000D48006840F0080093
:1014E0000B49086000BF0A48006800F008000028A7
:1014F000F9D10748006840F004000549086000BFC2
:101500000348006800F004000028F9D1704700008B
:1015100008240140012802D0022821D10EE0124AFD
:1015200013684A1E23EA02520F4B1A601A461368C8
:101530004A1E43EA02520C4B1A6012E00A4A0C326D
:1015400013684A1E23EA0252074B0C331A601A46EC
:1015500013684A1E43EA0252034B0C331A6000E040
:1015600000BF00BF704700002C24014030B1074984
:10157000096841F40061054A116005E00349096802
:1015800021F40061014A1160704700000824014005
:10159000134A126822F4C052114B1A60012802D07B
:1015A00002281AD112E00E4A126822F460420C4B53
:1015B0001A601A4613684A1E43EA4232084B1A6000
:1015C0001A46126842F400621A6007E0044A126880
:1015D00042F48052024B1A6000E000BF00BF704727
:1015E000042401400348006840F480700149086009
:1015F00070470000082401400548006800F0010021
:1016000028B90348006840F00100014908607047AC
:101610000824014091B100F001022AB1114A126878
:1016200042F480120F4B1A6000F00202C2B10D4A60
:10163000126842F400420B4B1A6011E000F0010204
:101640002AB1084A126822F48012064B1A6000F090
:1016500002022AB1034A126822F40042014B1A60C6
:101660007047000008240140012802D0022816D14A
:101670000AE00C4A126822F460220A4B1A601A46E9
:1016800012680A431A600BE0064A126822F4E0422C
:10169000044B1A601A4612680A431A6000E000BF41
:1016A00000BF70470824014070B51446122900D1CC
:1016B000002106280ED2324D2A6800EB80061F2535
:1016C000B540AA4300EB800501FA05F52A432C4DED
:1016D0002A602AE00C2812D2294D2D1F2A68851F66
:1016E00005EB85061F25B540AA43851F05EB85053B
:1016F00001FA05F52A43224D2D1F2A6015E0102816
:1017000013D21F4D083D2A68A0F10C0505EB850694
:101710001F25B540AA43A0F10C0505EB850501FA8C
:1017200005F52A43164D083D2A600A2910D2144DAA
:10173000243D2B6801EB41060725B540AB4301EB87
:10174000410504FA05F52B430D4D243D2B6015E0B2
:10175000122913D20A4D283D2B68A1F10A0505EB89
:1017600045060725B540AB43A1F10A0505EB450544
:1017700004FA05F52B43024D283D2B6070BD000097
:101780003424014000F0010129B10849096841F4FD
:101790008001064A116000F0020129B1034909687D
:1017A00041F40011014A1160704700000824014013
:1017B00020B1012805D002280BD106E0064A1160AD
:1017C00008E0054A121D116004E0034A0832116066
:1017D00000E000BF00BF7047087400400348006885
:1017E00040F00100014908607047000000740040AB
:1017F0000348006840F0020001490860704700009B
:10180000007400400348006840F00100014908608E
:1018100070470000047400400549096821F0380150
:10182000034A1160114609680143116070470000C6
:10183000007400400349086000BF0249096800299C
:10184000FBD170470C0000200448006820B1034819
:101850000068401E01490860704700000C0000202D
:1018600000EB8001064A02EB8101896841F0010129
:1018700000EB8002024B03EB820291607047000094
:101880000000024000EB8001064A02EB81018968FA
:1018900041F0200100EB8002024B03EB82029160D9
:1018A000704700000000024000EB8001144A02EB88
:1018B0008101896821F0010100EB8002104B03EBEC
:1018C00082029160002100EB800203EB82029160B2
:1018D00000EB800203EB8202D16000EB800203EB9D
:1018E0008202116100EB800203EB82025161194612
:1018F000496883000F229A401143014A51607047A2
:101900000000024010B50246054B1B68940001FA26
:1019100004F423400BB1012000E0002010BD0000C2
:101920000000024000EB8002024B03EB8202516197
:10193000704700000000024000EB8001064A02EB05
:101940008101896841F0800100EB8002024B03EBCA
:1019500082029160704700000000024010B50A4604
:1019600000EB8003064C04EB8303996821F440618B
:10197000114300EB800304EB8303996010BD00006A
:101980000000024000EB8002024B03EB8202116177
:10199000704700000000024000EB8001064A02EBA5
:1019A0008101896821F0400100EB8002024B03EBCA
:1019B00082029160704700000000024010B50A46A4
:1019C00000EB8003064C04EB8303996821F440711B
:1019D000114300EB800304EB8303996010BD00000A
:1019E0000000024010B50A4600EB8003064C04EBF1
:1019F0008303996821F44051114300EB800304EB09
:101A00008303996010BD00000000024010B571B959
:101A100000EB80020D4B03EB8202926822F0100271
:101A200000EB8003094C04EB83039A600DE000EBAC
:101A30008002064B03EB8202926842F0100200EB38
:101A40008003024C04EB83039A6010BD0000024047
:101A500000EB8002024B03EB8202D1607047000072
:101A60000000024070B504460D46E1B2064800F0A1
:101A7000D1FC00BF40F20771034800F0F4FC0028DD
:101A8000F8D0204670BD000000380140F0B5034694
:101A90001C6A5D6A00200DE00126864016403EB1BA
:101AA00087000F26BE40B443860001FA06F6344391
:101AB000461CB0B20828EFD3082011E0012686406A
:101AC00016405EB1A0F10806B7000F26BE40B54330
:101AD000A0F10806B60001FA06F63543461CB0B27E
:101AE0001028EBD31C625D62F0BD81617047F0B5D8
:101AF00004460D4616462168E268002019E00127D9
:101B000087401F409FB14FEA400C032707FA0CF7AC
:101B1000B943470005FA07F739434FEA400C03275A
:101B200007FA0CF7BA43470006FA07F73A43471C8F
:101B3000B8B21028E3D32160E260F0BDF0B50C46E6
:101B40001546012C03D146681E43466002E04668F4
:101B50009E434660826800210DE001268E401E40B3
:101B60003EB14F000326BE40B2434E0005FA06F6D2
:101B700032434E1CB1B21029EFD38260F0BD000099
:101B800000F0E8FAFEF74CFFFEF7F0FFFEF76CFE00
:101B9000FEF7ACFEFEF7E6FE00F064F800F008FB8E
:101BA000FEF720FF824651461EA0FFF72FF837E0D0
:101BB00000242CE000BF02210020FFF7A3FE002834
:101BC000F9D01D4931F81400FEF70BFC83464FF0A5
:101BD0008B41FEF7E7FA8146FEF721FC07464FF0FE
:101BE0006632164BFEF71CFB0546FEF72BFC14492C
:101BF00041F8240051F82400FEF711FC05462A465E
:101C00000B4621460FA0FFF701F8601CC4B2022C5E
:101C1000D0DB1348FEF7C4FE6420FFF70BFE00BFC5
:101C2000C6E700006D63752069642069733A20304F
:101C300078253034780D0A000000002066660A40DE
:101C40000400002074686520766F6C5F76616C75A7
:101C5000656C5B25645D2069732025660D0A0000B4
:101C60009A99993F10B54FF4C06000F059F80122DD
:101C70001146102000F002F810BD0000F0B50B4630
:101C8000002100240025244E366806F4E066B6F5EF
:101C9000E06F02D100BF042526E01F4E366806F42F
:101CA000E066B6F5C06F02D1012403251CE01A4E90
:101CB000366806F4E066B6F5A06F02D1022402256C
:101CC00012E0154E366806F4E066B6F5806F02D174
:101CD0000324012508E0104E366806F4E066B6F5E8
:101CE000407F01D104240025C4F1040603FA06F163
:101CF000C5F104070F26FE40164031430901074E87
:101D0000315400F01F070126BE404711BF0007F104
:101D1000E027C7F80061F0BD0CED00E000E400E052
:101D200002490143024A1160704700000000FA05B1
:101D30000CED00E02449496821F44041224A5160F9
:101D40001146096B21F480711163052839D2DFE84F
:101D500000F0030A14202C001B49096B21F4807148
:101D6000194A11632EE018494968174A5160114613
:101D7000096B41F48071116324E01349496841F40F
:101D80008041114A51601146096B41F48071116321
:101D900018E00D49496841F400410B4A5160114671
:101DA000096B41F4807111630CE00749496841F403
:101DB0004041054A51601146096B41F4807111633D
:101DC00000E000BF00BF7047001002402DE9F04F57
:101DD0008FB004464FF0000CE046002000220025A2
:101DE0008146CDF838900021CDF83490CDF8309070
:101DF000CDF82C900023CDF82890CDF82490CDF884
:101E00002090002600270FF24C2999E8004CD9F8C1
:101E10000C90CDE905BECDF810A0CDF81C900FF2C6
:101E2000382ADAE9009ACDE9029A0FF22C2ADAE987
:101E3000009ACDE9009ADFF82C92D9F80490C9F302
:101E4000810CBCF1000F06D0BCF1010F05D0BCF134
:101E5000020F3FD103E0844A3EE0834A3CE0DFF8D2
:101E60000492D9F80490C9F38343DFF8F891D9F8C4
:101E70000490C9F3C069CDF82890DDF82890B9F135
:101E8000000F01D0113300E09B1CDFF8D891D9F886
:101E90000490C9F30049CDF82490DDF82490B9F1FD
:101EA000000F12D0DFF8BC91D9F82C9009F00F097F
:101EB00009F10109CDF82090DFF8ACA1DDF8209000
:101EC000BAFBF9F909FB03F203E0DFF8A09103FB89
:101ED00009F201E0644A00BF00BFDFF88891D9F839
:101EE0000490C9F303160DF1100919F8067022FACF
:101EF00007F5DFF87091D9F80490C9F302260DF1C7
:101F0000080919F8067025FA07F9CDF83890DFF8B6
:101F10005491D9F80490C9F3C2261DF8067025FA29
:101F200007F1072C72D2DFE804F00406080A0C4718
:101F30005B00104689E0284687E00E9885E0084659
:101F400083E0DFF82091D9F8309009F48079B9F571
:101F5000807F04D0DFF81891CDF834902AE0DFF8C4
:101F60000491D9F80490C9F38138B8F1000F09D071
:101F7000B8F1010F0BD0B8F1020F0DD0B8F1030F7B
:101F800016D110E04FEA5109CDF8349011E04FEA34
:101F90009109CDF834900CE04FF00609B1FBF9F946
:101FA000CDF8349005E04FEAD109CDF8349000E047
:101FB00000BF00BF0D9848E0DFF8A890D9F8309036
:101FC00009F04009B9F1400F04D048F21209CDF8E8
:101FD000309003E04FF40049CDF830900C9834E095
:101FE000DFF88090D9F8309009F00309B9F1000FBB
:101FF00001D10B9126E0DFF86C90D9F8309009F010
:102000000309B9F1010F02D10B921BE01CE0DFF8CC
:102010005490D9F8309009F00309B9F1020F04D1B6
:102020004FF40049CDF82C900CE0DFF83890D9F847
:10203000309009F00309B9F1030F03D1DFF82890BC
:10204000CDF82C900B9800E000BF00BF0FB0BDE8AA
:10205000F08F0000000000000000000001020304F7
:10206000060708090010024000127A0000093D002E
:10207000809FD500064A02EB9011096800F01F030B
:1020800001229A401143024B03EB901211607047FA
:1020900000100240064A02EB9011096800F01F038D
:1020A00001229A409143024B03EB9012116070475A
:1020B00000100240064A02EB9011096800F01F036D
:1020C00001229A401143024B03EB901211607047BA
:1020D000001002401A4840681949486008464068A4
:1020E000486008464068486008464068154908400E
:1020F000134948600846406813490843104948603E
:102100000846006840F08070086000BF0C48006816
:1021100000F000700028F9D00948406820F0030062
:10212000074948600846406840F00200486000BF28
:102130000348406800F008000028F9D0704700000C
:1021400000100240FFFFC2F70000040810B5FFF7BF
:10215000C1FF10BD10B5124800684FF47A71B0FB92
:10216000F1F4601EB0F1807F01D301200FE0601E0A
:102170004FF0E02148610F214FF0FF30FEF784FC63
:1021800000204FF0E021886107200861002008B19D
:1021900000BFFEE70021481EFEF776FC10BD0000E0
:1021A00010000020016841F08001016070470000CC
:1021B0001FB540F20170FFF75DFF134800F026F8ED
:1021C0004720ADF800000020ADF80200ADF8040093
:1021D0004CF2503002900020ADF80C008DF80E004B
:1021E0006946094800F086F80748FFF7DBFF02213F
:1021F000054800F0CDF80221034800F0C5F8024878
:1022000000F072F81FBD00000004004010B5044645
:102210003349601A8C4217D00CDCB4F1804F1CD0CB
:102220003048204410B3B0F5406F28D0B0F5E05FDF
:1022300052D12DE0B0F5A05F33D0B0F5C05F39D0FA
:10224000B0F5E05F48D13EE040F20B30FFF732FFDF
:1022500040F20B30FFF71EFF3FE04FF48060FFF7C6
:1022600029FF4FF48060FFF715FF36E040F2014090
:10227000FFF720FF40F20140FFF70CFF2DE040F296
:102280000440FFF717FF40F20440FFF703FF24E08C
:102290004FF48160FFF70EFF4FF48160FFF7FAFE05
:1022A0001BE04FF44470FFF705FF4FF44470FFF755
:1022B000F1FE12E040F21130FFF7FCFE40F2113067
:1022C000FFF7E8FE09E040F21230FFF7F3FE40F2BC
:1022D0001230FFF7DFFE00E000BF00BF10BD0000BE
:1022E000002C014000FCFFBF016841F001010160CA
:1022F000704700000A8882621D4A904205D0B0F102
:10230000804F02D01B4A90420CD1026822F010028A
:10231000026002684B881A43026002688B881A4385
:10232000026007E0026822F01002026002688B88F7
:102330001A4302608A68C2620F4A904207D002685C
:1023400022F44072026002688B891A430260084AD4
:10235000904208D0094A904205D0094A904202D0E2
:10236000084A904201D18A7B026342694261704708
:10237000002C0140000400400010004000400140DB
:102380000044014000480140C2680A43C2607047EF
:1023900002698A43026170472DE9F04704460D4601
:1023A0000027B846B94600261948204438B1B0F590
:1023B000744F09D10620FFF709FD074605E002200A
:1023C000FFF704FD074600E000BF00BF206800F4EF
:1023D000004070B1780000EB5500B0FBF5F64FF609
:1023E000F07006EA0008C6F3420948EA0900E06016
:1023F0000CE007EB5500B0FBF5F64FF6F07006EA7F
:10240000000806F00F0948EA0900E060BDE8F0871F
:1024100000BCFFBFC1F308028262704710B50446DA
:102420000D48204458B1B0F5744F11D140F20E3030
:10243000FFF740FE40F20E30FFF72CFE09E040F2BD
:102440001140FFF737FE40F21140FFF723FE00E096
:1024500000BF00BF10BD000000BCFFBF016841F01D
:1024600001010160704710B5024602EB911000684F
:1024700001F01F040123A340184008B1012010BD42
:102480000020FCE7026822F00402026002680A43AE
:1024900002607047026822F00802026002680A4384
:1024A00002607047C42400080000002018000000EB
:1024B0002C0C0008DC240008180000200004000098
:1024C0003C0C0008000000000000000000000000BC
:0C24D0000000000000A24A040000000010
:04000005080001816D
:00000001FF
