:020000040800F2
:1000000068080020050200082D030008C50200084A
:1000100029030008BF020008ED03000800000000EB
:100020000000000000000000000000005B0300086A
:10003000C302000800000000590300085D03000827
:100040001F0200081F0200081F0200081F0200080C
:100050001F0200081F0200081F0200081F020008FC
:100060001F0200081F0200081F0200081F020008EC
:100070001F0200081F0200081F0200081F020008DC
:100080001F0200081F020008000000001F020008F5
:100090001F0200081F0200081F0200081F020008BC
:1000A0001F0200081F0200081F0200081F020008AC
:1000B0001F020008000000001F02000800000000EE
:1000C0001F020008000000001F0200081F020008B5
:1000D0001F0200081F0200081F02000800000000A5
:1000E00000000000000000001F0200081F020008BE
:1000F0001F0200081F0200081F0200081F0200085C
:100100001F02000800000000000000001F0200089D
:1001100000000000000000000000000000000000DF
:1001200000000000000000000000000000000000CF
:1001300000000000000000000000000000000000BF
:1001400000000000000000000000000000000000AF
:1001500000000000000000001F0200081F0200084D
:100160001F0200081F02000800F002F800F03AF831
:100170000AA090E8000C82448344AAF10107DA4502
:1001800001D100F02FF8AFF2090EBAE80F0013F01A
:10019000010F18BFFB1A43F00103184728040000A1
:1001A00048040000103A24BF78C878C1FAD8520732
:1001B00024BF30C830C144BF04680C6070470000E1
:1001C0000023002400250026103A28BF78C1FBD860
:1001D000520728BF30C148BF0B6070471FB51FBD15
:1001E00010B510BD00F031F81146FFF7F7FF00F031
:1001F0005FF900F04FF803B4FFF7F2FF03BC00F023
:1002000057F800000948804709480047FEE7FEE725
:10021000FEE7FEE7FEE7FEE7FEE7FEE7FEE7FEE7B6
:1002200004480549054A064B70470000650300086D
:1002300069010008680000206808002068040020A8
:1002400068040020704770477047754600F02CF82E
:10025000AE4605006946534620F00700854618B0B3
:1002600020B5FFF7DDFFBDE820404FF000064FF05E
:1002700000074FF000084FF0000B21F00701AC46DB
:10028000ACE8C009ACE8C009ACE8C009ACE8C009FA
:100290008D46704710B50446AFF300802046BDE898
:1002A0001040FFF7A8BF000000487047080000207A
:1002B00001491820ABBEFEE726000200704700BFD0
:1002C000FEE7704700BFFEE710B540F2115000F0A6
:1002D00001F940F2125000F0FDF8802300220121C4
:1002E0004FF0904000F09CF81023002201210D48AF
:1002F00000F096F88023032200214FF0904000F098
:10030000B6F8102303220021064800F0B0F880213F
:100310004FF0904000F082F81021024800F07EF883
:1003200010BD00000004004800BFFEE77047000059
:1003300010B5002807DA0A07140E054A00F00F036B
:100340001B1FD45403E00A07130E024A135410BDB6
:1003500018ED00E000E400E07047704710B500F0D1
:1003600051F810BD10B51D48006840F001001B4950
:10037000086000BF1948006800F002000028F9D0AA
:1003800016484068164908401449486008464068C5
:1003900014490840114948600846406820F440006C
:1003A000486008460068104908400C490860084643
:1003B000C06A20F00F00C8620846006B40F243118B
:1003C0008843064908630846406B20F001004863F3
:1003D0000020886000F0CAF810BD00000010024044
:1003E0000C00FF08FFFFC277FFFFF2FE00BFFEE731
:1003F0000349086000BF024909680029FBD1704722
:10040000000000200448006820B103480068401E36
:1004100001490860704700000000002081617047BA
:10042000F0B504460D4616462168E268002019E042
:10043000012787401F409FB14FEA400C032707FA6E
:100440000CF7B943470005FA07F739434FEA400C68
:10045000032707FA0CF7BA43470006FA07F73A43AF
:10046000471CB8B21028E3D32160E260F0BDF0B5BC
:100470000C461546012C03D146681E43466002E037
:1004800046689E434660826800210DE001268E404A
:100490001E403EB14F000326BE40B2434E0005FA57
:1004A00006F632434E1CB1B21029EFD38260F0BD84
:1004B00000F060F8FFF708FF0BE04FF09040406954
:1004C00080F080004FF0904148614FF4FA70FFF7E0
:1004D0008FFFF2E7064A02EB9011096800F01F0354
:1004E00001229A401143024B03EB901211607047B6
:1004F000001002401A4840681949486008464068A0
:100500004860084640684860084640681549084009
:100510001349486008464068134908431049486039
:100520000846006840F08070086000BF0C48006812
:1005300000F000700028F9D00948406820F003005E
:10054000074948600846406840F00200486000BF24
:100550000348406800F008000028F9D07047000008
:1005600000100240FFFFC2F70000040810B5FFF7BB
:10057000C1FF10BD10B5124800684FF47A71B0FB8E
:10058000F1F4601EB0F1807F01D301200FE0601E06
:100590004FF0E02148610F214FF0FF30FFF7C8FE18
:1005A00000204FF0E021886107200861002008B199
:1005B00000BFFEE70021481EFFF7BAFE10BD000095
:1005C00004000020E40500080000002008000000EE
:1005D000A4010008EC0500080800002060080000E5
:0C05E000C00100080000000000A24A0456
:0400000508000205E8
:00000001FF
