:020000040800F2
:10000000100400208101000839020008CF01000817
:1000100035020008C901000895030008000000002F
:10002000000000000000000000000000670200085F
:10003000CD01000800000000650200086902000808
:100040009B0100089B0100089B0100089B01000820
:100050009B0100089B0100089B0100089B01000810
:100060009B0100089B0100089B0100089B01000800
:100070009B0100089B0100089B0100089B010008F0
:100080009B0100089B010008000000009B01000884
:100090009B0100089B0100089B0100089B010008D0
:1000A0009B0100089B0100089B0100089B010008C0
:1000B0009B010008000000009B01000800000000F8
:1000C0009B010008000000009B0100089B01000844
:1000D0009B0100089B0100089B0100080000000034
:1000E00000000000000000009B0100089B010008C8
:1000F0009B0100089B0100089B0100089B01000870
:100100009B01000800000000000000009B010008A7
:1001100000000000000000000000000000000000DF
:1001200000000000000000000000000000000000CF
:1001300000000000000000000000000000000000BF
:1001400000000000000000000000000000000000AF
:1001500000000000000000009B0100089B01000857
:100160009B0100089B010008DFF810D000F01AF88E
:100170000048004731050008AFF30080100400205C
:100180000648804706480047FEE7FEE7FEE7FEE731
:10019000FEE7FEE7FEE7FEE7FEE7FEE77102000886
:1001A00069010008064C074D06E0E06840F00103D5
:1001B00094E8070098471034AC42F6D3FFF7D8FF15
:1001C000540A0008740A000800BFFEE7704700BF29
:1001D000FEE7000010B540F2115000F01DFB40F2A8
:1001E000125000F019FB8023002201214FF09040B3
:1001F00000F055F91023002201210D4800F04FF9BD
:100200008023032200214FF0904000F06FF910236B
:1002100003220021064800F069F980214FF0904048
:1002200000F03BF91021024800F037F910BD000042
:100230000004004800BFFEE77047000010B500282A
:1002400007DA0A07140E054A00F00F031B1FD454E7
:1002500003E00A07130E024A135410BD18ED00E024
:1002600000E400E07047704710B500F0C7F810BD1B
:1002700010B51D48006840F001001B49086000BF30
:100280001948006800F002000028F9D016484068BC
:100290001649084014494860084640681449084017
:1002A000114948600846406820F44000486008460C
:1002B0000068104908400C4908600846C06A20F0F0
:1002C0000F00C8620846006B40F24311884306499C
:1002D00008630846406B20F00100486300208860F6
:1002E00000F006FB10BD0000001002400C00FF08EB
:1002F000FFFFC277FFFFF2FE10B540F2115000F091
:100300008BFA40F20E6000F087FA4FF40072012180
:100310004FF0904000F092F84FF400730122022158
:100320004FF0904000F0BBF84FF400730122002121
:100330004FF0904000F0DAF84FF4806201214FF066
:10034000904000F07BF84FF48063012202214FF0CF
:10035000904000F0A4F84FF48063012200214FF098
:10036000904000F0C3F80A4800F030FB4FF4E13150
:10037000074800F0E9FA0821054800F063FB042172
:10038000034800F057FB024800F040FB10BD00009E
:100390000038014000BFFEE7014A024900F013B8EF
:1003A000150400080800002002E008C8121F08C158
:1003B000002AFAD170477047002001E001C1121FE6
:1003C000002AFBD170472DE9F04116460F4604463E
:1003D000002503E03946B047641C6D1C20780028D6
:1003E000F8D12846BDE8F0810349086000BF024902
:1003F00009680029FBD1704700000020044800680C
:1004000020B103480068401E0149086070470000A1
:100410000000002070B504460D46E1B2064800F029
:10042000D1FA00BF40F20771034800F0F4FA002847
:10043000F8D0204670BD000000380140F0B50346FA
:100440001C6A5D6A00200DE00126864016403EB120
:1004500087000F26BE40B443860001FA06F63443F7
:10046000461CB0B20828EFD3082011E001268640D0
:1004700016405EB1A0F10806B7000F26BE40B54396
:10048000A0F10806B60001FA06F63543461CB0B2E4
:100490001028EBD31C625D62F0BD81617047F0B53E
:1004A00004460D4616462168E268002019E001273F
:1004B00087401F409FB14FEA400C032707FA0CF713
:1004C000B943470005FA07F739434FEA400C0327C1
:1004D00007FA0CF7BA43470006FA07F73A43471CF6
:1004E000B8B21028E3D32160E260F0BDF0B50C464D
:1004F0001546012C03D146681E43466002E046685B
:100500009E434660826800210DE001268E401E4019
:100510003EB14F000326BE40B2434E0005FA06F638
:1005200032434E1CB1B21029EFD38260F0BD0000FF
:1005300000F0E2F9FFF74EFEFFF7DEFE0EE008A046
:10054000FFF72AFF4FF09040406980F080004FF0A5
:10055000904148614FF4FA70FFF746FFEFE7000063
:1005600048656C6C6F20576F726C64210D0A000037
:100570002DE9F04F8FB004464FF0000CE04600200C
:10058000002200258146CDF838900021CDF8349026
:10059000CDF83090CDF82C900023CDF82890CDF8F0
:1005A0002490CDF82090002600270FF24C2999E8DE
:1005B000004CD9F80C90CDE905BECDF810A0CDF8CF
:1005C0001C900FF2382ADAE9009ACDE9029A0FF26C
:1005D0002C2ADAE9009ACDE9009ADFF82C92D9F8B2
:1005E0000490C9F3810CBCF1000F06D0BCF1010FDF
:1005F00005D0BCF1020F3FD103E0844A3EE0834ABC
:100600003CE0DFF80492D9F80490C9F38343DFF8A3
:10061000F891D9F80490C9F3C069CDF82890DDF8B5
:100620002890B9F1000F01D0113300E09B1CDFF8D6
:10063000D891D9F80490C9F30049CDF82490DDF899
:100640002490B9F1000F12D0DFF8BC91D9F82C90AA
:1006500009F00F0909F10109CDF82090DFF8ACA1EC
:10066000DDF82090BAFBF9F909FB03F203E0DFF8AB
:10067000A09103FB09F201E0644A00BF00BFDFF86C
:100680008891D9F80490C9F303160DF1100919F8EF
:10069000067022FA07F5DFF87091D9F80490C9F3D3
:1006A00002260DF1080919F8067025FA07F9CDF8A8
:1006B0003890DFF85491D9F80490C9F3C2261DF898
:1006C000067025FA07F1072C72D2DFE804F0040661
:1006D000080A0C475B00104689E0284687E00E9820
:1006E00085E0084683E0DFF82091D9F8309009F4DE
:1006F0008079B9F5807F04D0DFF81891CDF8349077
:100700002AE0DFF80491D9F80490C9F38138B8F1F0
:10071000000F09D0B8F1010F0BD0B8F1020F0DD0C6
:10072000B8F1030F16D110E04FEA5109CDF834901B
:1007300011E04FEA9109CDF834900CE04FF0060932
:10074000B1FBF9F9CDF8349005E04FEAD109CDF8C5
:10075000349000E000BF00BF0D9848E0DFF8A8909B
:10076000D9F8309009F04009B9F1400F04D048F2AF
:100770001209CDF8309003E04FF40049CDF83090E5
:100780000C9834E0DFF88090D9F8309009F0030934
:10079000B9F1000F01D10B9126E0DFF86C90D9F888
:1007A000309009F00309B9F1010F02D10B921BE05F
:1007B0001CE0DFF85490D9F8309009F00309B9F142
:1007C000020F04D14FF40049CDF82C900CE0DFF873
:1007D0003890D9F8309009F00309B9F1030F03D12B
:1007E000DFF82890CDF82C900B9800E000BF00BFF8
:1007F0000FB0BDE8F08F0000000000000000000016
:1008000001020304060708090010024000127A00E2
:1008100000093D00809FD500064A02EB901109684F
:1008200000F01F0301229A401143024B03EB901288
:100830001160704700100240064A02EB90110968EF
:1008400000F01F0301229A409143024B03EB9012E8
:100850001160704700100240064A02EB90110968CF
:1008600000F01F0301229A401143024B03EB901248
:1008700011607047001002401A48406819494860EA
:100880000846406848600846406848600846406836
:100890001549084013494860084640681349084311
:1008A000104948600846006840F08070086000BF4A
:1008B0000C48006800F000700028F9D00948406832
:1008C00020F00300074948600846406840F00200F5
:1008D000486000BF0348406800F008000028F9D0D5
:1008E0007047000000100240FFFFC2F7000004083C
:1008F00010B5FFF7C1FF10BD10B5124800684FF4E6
:100900007A71B0FBF1F4601EB0F1807F01D3012059
:100910000FE0601E4FF0E02148610F214FF0FF30E3
:10092000FFF78CFC00204FF0E02188610720086170
:10093000002008B100BFFEE70021481EFFF77EFC43
:1009400010BD0000040000202DE9F04704460D46CC
:100950000027B846B94600261948204438B1B0F5FA
:10096000744F09D10620FFF703FE074605E0022079
:10097000FFF7FEFD074600E000BF00BF206800F45F
:10098000004070B1780000EB5500B0FBF5F64FF673
:10099000F07006EA0008C6F3420948EA0900E06080
:1009A0000CE007EB5500B0FBF5F64FF6F07006EAE9
:1009B000000806F00F0948EA0900E060BDE8F0878A
:1009C00000BCFFBFC1F308028262704710B5044645
:1009D0000D48204458B1B0F5744F11D140F20E309B
:1009E000FFF73AFF40F20E30FFF726FF09E040F232
:1009F0001140FFF731FF40F21140FFF71DFF00E00B
:100A000000BF00BF10BD000000BCFFBF016841F087
:100A100001010160704710B5024602EB91100068B9
:100A200001F01F040123A340184008B1012010BDAC
:100A30000020FCE7026822F00402026002680A4318
:100A400002607047026822F00802026002680A43EE
:100A500002607047740A0008000000200C000000CB
:100A6000A8030008800A00080C000020040400000D
:100A7000B80300080000000000A24A0400000000C3
:04000005080001816D
:00000001FF
