:020000040800F2
:1000000068080020050200086D0300080B030008C3
:1000100069030008BF0200082D040008000000006A
:100020000000000000000000000000009B0300082A
:100030000903000800000000990300089D03000860
:100040001F0200081F0200081F0200081F0200080C
:100050001F0200081F0200081F0200081F020008FC
:100060001F0200081F0200081F0200081F020008EC
:100070001F0200081F0200081F0200081F020008DC
:100080001F0200081F020008000000001F020008F5
:100090001F0200081F0200081F0200081F020008BC
:1000A0001F0200081F0200081F0200081F020008AC
:1000B0001F020008000000001F02000800000000EE
:1000C0001F020008000000001F0200081F020008B5
:1000D0001F0200081F0200081F02000800000000A5
:1000E00000000000000000001F0200081F020008BE
:1000F0001F0200081F0200081F0200081F0200085C
:100100001F02000800000000000000001F0200089D
:1001100000000000000000000000000000000000DF
:1001200000000000000000000000000000000000CF
:1001300000000000000000000000000000000000BF
:1001400000000000000000000000000000000000AF
:1001500000000000000000001F0200081F0200084D
:100160001F0200081F02000800F002F800F03AF831
:100170000AA090E8000C82448344AAF10107DA4502
:1001800001D100F02FF8AFF2090EBAE80F0013F01A
:10019000010F18BFFB1A43F0010318478006000047
:1001A000A0060000103A24BF78C878C1FAD85207D8
:1001B00024BF30C830C144BF04680C6070470000E1
:1001C0000023002400250026103A28BF78C1FBD860
:1001D000520728BF30C148BF0B6070471FB51FBD15
:1001E00010B510BD00F031F81146FFF7F7FF00F031
:1001F000AFF900F04FF803B4FFF7F2FF03BC00F0D3
:1002000057F800000948804709480047FEE7FEE725
:10021000FEE7FEE7FEE7FEE7FEE7FEE7FEE7FEE7B6
:1002200004480549054A064B70470000A50300082D
:1002300069010008680000206808002068040020A8
:1002400068040020704770477047754600F02CF82E
:10025000AE4605006946534620F00700854618B0B3
:1002600020B5FFF7DDFFBDE820404FF000064FF05E
:1002700000074FF000084FF0000B21F00701AC46DB
:10028000ACE8C009ACE8C009ACE8C009ACE8C009FA
:100290008D46704710B50446AFF300802046BDE898
:1002A0001040FFF7A8BF000000487047080000207A
:1002B00001491820ABBEFEE726000200704700BFD0
:1002C000FEE770B504460D4640F2115000F018FAF2
:1002D0004FF48073002202214FF0904000F0EFF8BD
:1002E0004FF48073032200214FF0904000F00EF98C
:1002F0004FF4807200214FF0904000F0AFF8294693
:10030000204600F047F970BD704700BFFEE70000CF
:1003100010B540F2125000F0F3F940F2125000F024
:10032000EFF90823002201210E4800F0C8F810233D
:10033000002201210B4800F0C2F80823032200210B
:10034000084800F0E3F8102303220021054800F0DC
:10035000DDF80821034800F0B0F81021014800F052
:10036000ACF810BD0004004800BFFEE77047000075
:1003700010B5002807DA0A07140E054A00F00F032B
:100380001B1FD45403E00A07130E024A135410BD76
:1003900018ED00E000E400E07047704710B500F091
:1003A00051F810BD10B51D48006840F001001B4910
:1003B000086000BF1948006800F002000028F9D06A
:1003C0001648406816490840144948600846406885
:1003D00014490840114948600846406820F440002C
:1003E000486008460068104908400C490860084603
:1003F000C06A20F00F00C8620846006B40F243114B
:100400008843064908630846406B20F001004863B2
:100410000020886000F0D6F910BD000000100240F6
:100420000C00FF08FFFFC277FFFFF2FE00BFFEE7F0
:100430000349086000BF024909680029FBD17047E1
:10044000000000200448006820B103480068401EF6
:10045000014908607047000000000020F0B5034625
:100460001C6A5D6A00200DE00126864016403EB100
:1004700087000F26BE40B443860001FA06F63443D7
:10048000461CB0B20828EFD3082011E001268640B0
:1004900016405EB1A0F10806B7000F26BE40B54376
:1004A000A0F10806B60001FA06F63543461CB0B2C4
:1004B0001028EBD31C625D62F0BD81617047F0B51E
:1004C00004460D4616462168E268002019E001271F
:1004D00087401F409FB14FEA400C032707FA0CF7F3
:1004E000B943470005FA07F739434FEA400C0327A1
:1004F00007FA0CF7BA43470006FA07F73A43471CD6
:10050000B8B21028E3D32160E260F0BDF0B50C462C
:100510001546012C03D146681E43466002E046683A
:100520009E434660826800210DE001268E401E40F9
:100530003EB14F000326BE40B2434E0005FA06F618
:1005400032434E1CB1B21029EFD38260F0BD0000DF
:100550004FF4106000F03EF800BF4FF4106000F060
:1005600049F80028F9D000214FF00070FFF7A9FEEC
:1005700000F02CF9FFF7CCFE09E00548006880F098
:100580000800034908604FF4FA70FFF751FFF4E7E1
:100590001404004810B50022044B5A6822F0774238
:1005A00042EA00030B43014C636010BD001002409F
:1005B0000146074A02EB9110006801F01F03012277
:1005C0009A40104008B1012070470020FCE700006D
:1005D00000100240064A02EB9011096800F01F0368
:1005E00001229A401143024B03EB901211607047B5
:1005F00000100240F0B50646002400270025B6F59D
:10060000006F1DD005DC76B3102E09D0182E70D1E6
:100610005EE0B6F5106F49D0B6F5506F69D133E0A2
:1006200004E01120FFF7C4FF0546641C15B9B4F5BA
:10063000006FF6D11120FFF7BBFF00B1012759E091
:1006400005E040F60100FFF7B3FF0546641C1DB945
:100650006FF07C408442F4D140F60100FFF7A8FF20
:1006600000B1012746E0FFE704E00120FFF7A0FF0B
:100670000546641C15B9B4F5A06FF6D10120FFF74B
:1006800097FF00B1012735E005E040F60150FFF784
:100690008FFF0546641C15B918488442F5D140F611
:1006A0000150FFF785FF00B1012723E005E040F688
:1006B0000110FFF77DFF0546641C15B90F48844201
:1006C000F5D140F60110FFF773FF00B1012711E0EB
:1006D00004E01920FFF76CFF0546641C15B90748B4
:1006E0008442F6D11920FFF763FF00B1012701E032
:1006F000FFE700BF00BF3846F0BD0000FFFF0F005E
:10070000064A02EB9011096800F01F0301229A408B
:100710001143024B03EB901211607047001002402E
:1007200000200021254A126842F48032234B1A60CF
:1007300000BF401C214A126802F4003111B9B0F523
:10074000006FF6D11D4A126802F4003202B97047F8
:100750001A4A5268194B5A601A4652685A601A4629
:1007600052685A601A465268154B1A40134B5A6029
:100770001A46526842F4E8125A601A46126842F069
:1007800080721A6000BF0D4A126802F00072002ADF
:10079000F9D00A4A526822F00302084B5A601A46FE
:1007A000526842F002025A6000BF044A526802F0E6
:1007B0000802002AF9D000BFC9E70000001002407B
:1007C000FFFFC27710B5FFF7ABFF10BD10B51248A1
:1007D00000684FF47A71B0FBF1F4601EB0F1807FD5
:1007E00001D301200FE0601E4FF0E02148610F218E
:1007F0004FF0FF30FFF7BCFD00204FF0E021886193
:1008000007200861002008B100BFFEE70021481E54
:10081000FFF7AEFD10BD0000040000203C080008FA
:100820000000002008000000A4010008440800089F
:100830000800002060080000C0010008000000005F
:0408400000A24A04C4
:0400000508000205E8
:00000001FF
