:020000040800F2
:10000000180400207D010008010900089F0800086D
:10001000FD080008990800085D0A000800000000BB
:100020000000000000000000000000002F09000890
:100030009D080008000000002D0900083109000893
:100040009701000897010008970100089701000830
:100050009701000897010008970100089701000820
:100060009701000897010008970100089701000810
:100070009701000897010008970100089701000800
:100080009701000897010008000000009701000890
:1000900097010008970100089701000897010008E0
:1000A00097010008970100089701000897010008D0
:1000B0009701000800000000970100080000000000
:1000C0009701000800000000970100089701000850
:1000D0009701000897010008970100080000000040
:1000E00000000000000000009701000897010008D0
:1000F0009701000897010008970100089701000880
:1001000097010008000000000000000097010008AF
:1001100000000000000000000000000000000000DF
:1001200000000000000000000000000000000000CF
:1001300000000000000000000000000000000000BF
:1001400000000000000000000000000000000000AF
:10015000000000000000000097010008970100085F
:100160009701000897010008DFF80CD000F01EFB93
:1001700000480047B11700081804002006488047CF
:1001800006480047FEE7FEE7FEE7FEE7FEE7FEE77C
:10019000FEE7FEE7FEE7FEE739090008690100080F
:1001A00030B480EA010202F0004530F0004221F054
:1001B000004013D090B1C30DD40DC2F31601C0F3AB
:1001C0001600E41A41F4000140F400027D3491422B
:1001D00001D3641C00E04900002C02DA30BC00208E
:1001E00070474FF400000023914201D3891A034362
:1001F00040084FEA4101F7D151B1914202D14FF08D
:10020000004105E002D24FF0010101E06FF0010171
:1002100003EBC450284430BC00F0EDB82DE9FE4F8C
:1002200081EA030404F0004421F0004100944FF0FF
:10023000000B23F0004350EA01045ED052EA0304AD
:100240005BD0C3F30A54C1F30A552C44A4F2F3342F
:100250000194A0FB0254C1F3130141F48011C3F3D4
:10026000130343F4801301FB024400FB034E840A92
:10027000970A44EA815447EA8357A4FB076802952A
:100280008D0A05FB07854FEA932C04FB0C542705C8
:10029000029D4FEA065847EA1637B5EB08056EEBA4
:1002A000070C870E920E47EA811742EA8312A7FBDA
:1002B0000201B6EB0B0164EB00042B0D43EA0C3397
:1002C0005E1844EB1C50DA465146E7FB0201C5F3C9
:1002D00013044FEA0B3343EA14534FEA0432019CF0
:1002E00043EA0603A4F10C040294009CCDE900B497
:1002F00000F0C7F803B0BDE8F08F00200146F9E731
:1003000096230022114600F07FB800F0004230F042
:1003100000400AD0C10D01F56071C0F3160042EA39
:100320000151C20840071143704700200146704741
:1003300001F0004330B421F0004150EA010206D040
:100340000A0DA2F56072C1F31301002A02DC30BC71
:1003500000207047440F44EAC104C100E01830BCDB
:1003600000EBC25000F047B830B50B460146002004
:100370002022012409E021FA02F59D4205D303FA67
:1003800002F5491B04FA02F52844151EA2F10102E8
:10039000F1DC30BD2DE9F05F0546002092469B461A
:1003A00088460646814640241BE02846414647468B
:1003B000224600F01CFA53465A46C01A914110D307
:1003C00011461846224600F003FA2D1A67EB010881
:1003D0004F4622460120002100F0FAF917EB0009F0
:1003E0004E41201EA4F10104DFDC484631462A4676
:1003F0004346BDE8F09F0029A8BF7047401C490054
:1004000008BF20F00100704710B4B0FA80FC00FA79
:100410000CF050EA010404BF10BC704749B1CCF1A4
:10042000200421FA04F411FA0CF118BF0121214330
:100430000843A3EB0C01CB1D4FEA00614FEA1020EB
:1004400042BF002010BC704700EBC350104400298D
:10045000A4BF10BC7047401C490008BF20F0010039
:1004600010BC704710B5141E73F1000408DA401C6C
:1004700041F1000192185B411A4301D120F00100C3
:1004800010BD2DE9F04D92469B4611B1B1FA81F2B3
:1004900002E0B0FA80F22032904600F099F904466A
:1004A0000F4640EA0A0041EA0B0153465A46084308
:1004B00013D0114653EA010019D0C8F1400250464A
:1004C00000F095F905460E4650465946424600F062
:1004D0007FF9084305D0012004E020463946BDE8F5
:1004E000F08D0020054346EAE0762C4337430A9816
:1004F0006305E40AA0EB08000022FD0A44EA475421
:100500000A3002D500200146E9E7010510196941CA
:10051000DDE9084500196941BDE8F04DA2E72DE984
:10052000FE4F804681EA0300C00F0C46009021F088
:10053000004123F00045B8EB0200A94105D2404636
:10054000214690461C460B46024623F000401043CD
:1005500047D0270DC7F30A00C3F30A510290401A8F
:10056000019040286BDAC3F3130040F4801B00981D
:10057000924620B10023D2EB030A63EB0B0B0198E8
:100580005946C0F14002504600F022F906460D4699
:1005900050465946019A00F03AF910EB08006141C3
:1005A000002487EA115284EAE7731A4340D0009A84
:1005B00062B3019A012A4FEA075215DC001B61EB76
:1005C00002014FF0004202EA0752CDE90042001C4E
:1005D00041F5801132462B46FFF753FF03B0BDE8CB
:1005E000F08F40462146F9E7001B61EB0201001C39
:1005F00041F5801300185B412018A2F5001747EB66
:10060000030140EAD570B6196D4111E06D084FEA5B
:10061000360645EAC0754FEA0752001B61EB02013E
:10062000001C41F5801149084FEA30000019514182
:1006300032462B4603B0BDE8F04FFFF713BF0098DA
:10064000012240000023D0EB020263EBE07300982C
:1006500021464FEAE074B8EB000061EB0401E9E7E2
:1006600083F000435BE781F0004158E72DE9F04D4E
:1006700081EA030404F0004B21F0004514464FF0DA
:10068000000A23F0004150EA050220D054EA01029A
:100690001DD0C5F30A570246C5F31303C1F3130077
:1006A000C1F30A5640F4801543F48013A7EB060803
:1006B000101BD64608F2FD3873EB050002D308F193
:1006C000010801E092185B41B8F1000F03DA002045
:1006D0000146BDE8F08D00204FF4801106468446A7
:1006E0000EE0171B73EB050705D3121B63EB050325
:1006F00006434CEA010C49084FEA300092185B416E
:1007000050EA0107EDD152EA030012D082EA040058
:1007100083EA0501084305D0101BAB4106D2012234
:10072000002306E000224FF0004302E06FF00102D8
:1007300053101AEB06004CEB085110EB0A0041EB8A
:100740000B01BDE8F04DFFF78DBEC1F30A52C1F3B6
:10075000130140F2FF3341F480119A4202DA002083
:100760000146704740F233439A42A2F2334202DC20
:10077000524200F03CB800F02BB8000030B5041E27
:1007800071F1000404DB4FF00044404264EB0101CE
:10079000141E73F1000405DB1C464FF00043524267
:1007A00063EB0403994208BF904230BD064C074DED
:1007B00006E0E06840F0010394E807009847103431
:1007C000AC42F6D3FFF7D4FC301E0008501E0008E0
:1007D000202A04DB203A00FA02F100207047914001
:1007E000C2F1200320FA03F3194390407047202AF6
:1007F00004DB203A21FA02F00021704721FA02F3CB
:10080000D040C2F120029140084319467047202A87
:1008100006DBCB17203A41FA02F043EAE07306E028
:1008200041FA02F3D040C2F1200291400843194638
:100830007047000010B540F2125001F0C5F940F2C7
:10084000096001F0C1F9032001F01EF80123002224
:100850000321104800F063FF0121022000F0C4FED4
:100860004FF46021012000F009FE002000F0BCFDE3
:100870000121084600F08CFD05220821002000F02F
:100880002FFE0121084600F0CFFD00F0BFFD00F073
:1008900061FD10BD0004004800BFFEE7704700BFC7
:1008A000FEE7000010B540F2125001F08DF940F261
:1008B000125001F089F90823002201210E4800F0AE
:1008C0002EFF1023002201210B4800F028FF0823EF
:1008D00003220021084800F049FF102303220021D1
:1008E000054800F043FF0821034800F016FF1021DF
:1008F000014800F012FF10BD0004004800BFFEE7F1
:100900007047000010B5002807DA0A07140E054AE0
:1009100000F00F031B1FD45403E00A07130E024A12
:10092000135410BD18ED00E000E400E0704770477C
:1009300010B500F0A3FE10BD10B51D48006840F0D2
:1009400001001B49086000BF1948006800F0020060
:100950000028F9D0164840681649084014494860F4
:1009600008464068144908401149486008464068F4
:1009700020F44000486008460068104908400C49CF
:1009800008600846C06A20F00F00C8620846006B85
:1009900040F243118843064908630846406B20F043
:1009A000010048630020886001F090F910BD00004C
:1009B000001002400C00FF08FFFFC277FFFFF2FEAD
:1009C00010B540F2115001F0FFF840F20E6001F056
:1009D000FBF84FF4007201214FF0904000F06EFEE2
:1009E0004FF4806201214FF0904000F067FE4FF419
:1009F0000073012202214FF0904000F090FE4FF46E
:100A00000073012200214FF0904000F0AFFE4FF440
:100A10008063012202214FF0904000F080FE4FF4ED
:100A20008063012200214FF0904000F09FFE0A48B1
:100A300001F0BAF94FF4E131074801F073F90821E8
:100A4000054801F0EDF90421034801F0E1F90248FD
:100A500001F0CAF910BD00000038014000BFFEE7F8
:100A60000FB4054B10B503A9044A029800F0DAF858
:100A700010BC5DF814FB0000951600081000002063
:100A800002E008C8121F08C1002AFAD17047704757
:100A9000002001E001C1121F002AFBD170470000B5
:100AA0002DE9FF5F82B00021DDE90430020DDDF8A1
:100AB00040B0034318D044F61050A2F2FF32424334
:100AC0001514119801281FD0A5EB0B00401C5FEAFC
:100AD000000A4FF000064E4FDFF83891B0465046FE
:100AE00015D5CAF1000413E0119801244AA3012886
:100AF00001D16FEA0B010298119AC0E90031C0E9F7
:100B0000024206B0BDE8F09FCBF10000DFE70446EB
:100B10000021404A491842EB0450CDE9001012E090
:100B2000E00707D032463B4640464946FFF776FB92
:100B30008046894632463B4610461946FFF76EFB13
:100B400006460F466410002CEAD1DDE90401DDE918
:100B50000023BAF1000F06DAFFF760FB42464B466E
:100B6000FFF75CFB05E0FFF781FD42464B46FFF7D0
:100B70007DFD04460E460022284BFFF7FFFD03D8FB
:100B80004FF0FF30014607E00022254B204631465A
:100B9000FFF7C5FCFFF7D9FD102409E0002C0ADBA4
:100BA0000A220023FFF7F6FB039B30321A55641E1E
:100BB00050EA0102F2D1641C039AC4F111031444F7
:100BC000119A012A03D0012208430DD10AE00843FB
:100BD00004D000204FF0110B119072E7A3EB0B052E
:100BE0006D1E0DE05B4504DD4FF0000205F10105CF
:100BF00004E003DA4FF00002A5F10105002AECD071
:100C000002981199C0E90231C0E9004579E7000076
:100C1000000014400000F03F300000000000F043EE
:100C20000000E03F2DE9FF4F95B09B468946064600
:100C300000250FE2252877D100242746F84A012114
:100C4000059400E0044316F8013F203B01FA03F04D
:100C50001042F7D130782A2811D06FF02F03307866
:100C6000A0F13002092A16D8059A44F0020402EBDA
:100C7000820203EB42021044761C0590EFE759F81C
:100C8000042B0592002A03DA504244F400540590E4
:100C900044F00204761C30782E2816D116F8010F85
:100CA00044F004042A280DD06FF02F023078A0F110
:100CB0003003092B09D807EB870302EB4303C7185E
:100CC000761CF3E759F8047B761C30786C280FD03B
:100CD00006DC4C2817D068280DD06A2814D104E00F
:100CE000742810D07A280FD10DE044F400140AE0E3
:100CF00044F4801401E044F440147278824202D13A
:100D000004F58014761C761C307866280BD013DC32
:100D1000582877D009DC002875D04528F6D0462819
:100D2000F4D047281AD19DE118E0632835D0642813
:100D300079D0652812D195E1702873D008DC672836
:100D4000F1D069286FD06E280DD06F2806D1B5E09C
:100D500073282CD0752875D0782874D05A461799E6
:100D600090476D1C75E1C4F30250022809D0032896
:100D70000DD0D9F8001004280DD00D6009F1040938
:100D800067E1D9F80010EA17C1E90052F6E7D9F88F
:100D900000100D80F2E70D70F0E719F8041B8DF8D4
:100DA000001000208DF80100EA46012003E059F808
:100DB00004AB4FF0FF3061074FF0000102D40DE0AB
:100DC00008F101018846B9420FDA8045F8DB1AF8CC
:100DD00008100029F4D108E008F101018846814299
:100DE000FADB1AF808100029F6D105985B46A0EB4B
:100DF000080721463846179A00F094FA284400EB79
:100E0000080507E04DE029E10DE01AF8010B5A460C
:100E100017999047B8F10108F7D25B46214638464A
:100E2000179A13E142E00A220092C4F302524FF0F3
:100E3000000A022A08D059F804CB032A4FEAEC71C1
:100E40000AD00DE029E02AE009F1070121F00702AC
:100E5000F2E802C1914609E00FFA8CFC4FEAEC710E
:100E6000042A03D14FFA8CFC4FEAEC71002907DA0F
:100E70000A460021DCF1000C61EB02012D2202E0A8
:100E8000220504D52B228DF80420012203E0E2077D
:100E900001D02022F7E7904659E00A2102E0102213
:100EA0000DE010214FF0000A00910BE010224FF0EE
:100EB000000A44F004040827009203E008224FF0DF
:100EC000000A0092C4F30252022A05D059F804CB5A
:100ED0000021032A08D009E009F1070121F00702E7
:100EE000F2E802C1914605E01FFA8CFC042A01D108
:100EF0000CF0FF0C4FF00008220728D5702806D010
:100F0000009B83F0100353EA0A0305D00EE0402251
:100F10008DF80420012208E05CEA010206D03022AC
:100F20008DF804208DF8050002229046009B83F086
:100F3000080353EA0A030AD15CEA010201D16207FD
:100F400005D530228DF804204FF001087F1E582867
:100F500004D034A003900EA802900DE036A0F9E76B
:100F600053466046009AFFF715FA84460398825C60
:100F70000298401E029002705CEA0100F0D10298D3
:100F800006A9081A00F1200A600702D524F480346B
:100F900000E00127574502DDA7EB0A0000E0002032
:100FA00000EB0A01009005984144401A0590E003C7
:100FB00006D45B462146179A059800F0B3F905441C
:100FC000002706E001A85A46C05D179990476D1C9E
:100FD0007F1C4745F6DBE0030CD55B462146179A9C
:100FE000059800F09FF9054404E030205A4617990F
:100FF00090476D1C0099481E00900029F5DC08E020
:10100000029802995A460078491C02911799904714
:101010006D1CBAF10001AAF1010AF1DC65E10000E2
:1010200009280100303132333435363738396162BE
:101030006364656600000000303132333435363782
:1010400038394142434445460000000000F058F959
:101050000544761C307800287FF4ECAD19B02846A2
:10106000BDE8F08F620700D4062709F1070222F0DD
:10107000070CFCE80223E14603F000485FEA080C95
:1010800002D00FF2702C0DE05FEA045C02D50FF283
:10109000682C07E05FEAC47C02D00FF2602C01E00C
:1010A000AFF2700C4FF0FF3823F00043CDF850C082
:1010B00065280CD006DC452809D046281DD04728D5
:1010C0003DD13DE0662818D067287ED138E0002168
:1010D000112F01DB112000E0781CCDE9000106A9E9
:1010E0000EA8FFF7DDFCDDE90F010E9A0391002148
:1010F000009207F1010A04914DE04FF00040009783
:10110000CDE9011006A90EA8FFF7CAFCDDE90F0220
:1011100003920E9B11990022DDF80CA0009304921B
:1011200011B9791C00EB010AB7EB0A0004D4C0F135
:10113000FF3007F1010A0490AAEB0700019044E098
:10114000012F00DA01270021112F01DD112000E01D
:101150003846CDE9000106A90EA8FFF7A1FCDDE99C
:101160000F010E9A0391002104910092BA462107C3
:101170000CD40399514500DA8A46BAF1010F05DD16
:10118000009AAAF10101515C302908D0B84202DA74
:1011900010F1040F06DA0121CDE9011015E0AAF1E2
:1011A0000101E9E7002805DC049901440491AAEB58
:1011B000000102E0411C514500DD8A460499401AB5
:1011C000401C01904FF000400290200704D4019889
:1011D000504501DBCDF8048000208DF84F000298C7
:1011E0000DF14F07B0F1004F25D02B200E90029843
:1011F0004FF0020800280CDA404202902D200E9099
:1012000007E00A210298FFF7AFF83031029007F8A3
:10121000011DB8F10001A8F10108F2DC02980028D4
:10122000EFD1791E0E980870307800F0200040F061
:10123000450007F8020D12A8C01B00F1070814981A
:10124000007800B1012000EB0A01019801EBE07188
:1012500005984144401A401E0590E00306D45B46C1
:101260002146179A059800F05DF805441498007817
:1012700018B15A46179990476D1CE00324D55B4678
:101280002146179A059800F04DF805441CE0049893
:10129000002807DBDDE90301884203DD0098405C9C
:1012A000179901E0179930205A469047049805F1A4
:1012B0000105401C04900198401E019004D12E208D
:1012C0005A46179990476D1CBAF10001AAF1010A1C
:1012D000DDDC05E017F8010B5A46179990476D1CA5
:1012E000B8F10001A8F10108F4DC5B462146179A29
:1012F0000598ABE62D0000002B0000002000000048
:101300002DE9F041044600251E461746880404D402
:1013100005E039462020B0476D1C641EF9D52846EB
:10132000BDE8F0812DE9F041044600251E469046B7
:10133000C80301D5302700E02027880404D505E044
:1013400041463846B0476D1C641EF9D52846BDE8B5
:10135000F08100000D48006840F008000B4908606B
:1013600000BF0A48006800F008000028F9D10748CB
:10137000006840F004000549086000BF03480068A9
:1013800000F004000028F9D1704700000824014053
:10139000012802D0022821D10EE0124A13684A1E09
:1013A00023EA02520F4B1A601A4613684A1E43EA98
:1013B00002520C4B1A6012E00A4A0C3213684A1EA1
:1013C00023EA0252074B0C331A601A4613684A1E6E
:1013D00043EA0252034B0C331A6000E000BF00BF27
:1013E000704700002C24014030B10749096841F4DE
:1013F0000061054A116005E00349096821F40061B4
:10140000014A116070470000082401400548006847
:1014100000F0010028B90348006840F001000149CC
:10142000086070470824014091B100F001022AB120
:10143000114A126842F480120F4B1A6000F0020247
:10144000C2B10D4A126842F400420B4B1A6011E01F
:1014500000F001022AB1084A126822F48012064BF9
:101460001A6000F002022AB1034A126822F4004214
:10147000014B1A607047000008240140012802D087
:10148000022816D10AE00C4A126822F460220A4BA4
:101490001A601A4612680A431A600BE0064A12687C
:1014A00022F4E042044B1A601A4612680A431A609A
:1014B00000E000BF00BF70470824014002490968EE
:1014C0008143014A11607047002401400146002019
:1014D000024A12680A4002B101207047002401400C
:1014E00070B51446122900D1002106280ED2324DC3
:1014F0002A6800EB80061F25B540AA4300EB800553
:1015000001FA05F52A432C4D2A602AE00C2812D254
:10151000294D2D1F2A68851F05EB85061F25B5401F
:10152000AA43851F05EB850501FA05F52A43224DDF
:101530002D1F2A6015E0102813D21F4D083D2A6880
:10154000A0F10C0505EB85061F25B540AA43A0F1C7
:101550000C0505EB850501FA05F52A43164D083DF6
:101560002A600A2910D2144D243D2B6801EB410654
:101570000725B540AB4301EB410504FA05F52B43C4
:101580000D4D243D2B6015E0122913D20A4D283D44
:101590002B68A1F10A0505EB45060725B540AB43CD
:1015A000A1F10A0505EB450504FA05F52B43024DAB
:1015B000283D2B6070BD00003424014000F0010183
:1015C00029B10849096841F48001064A116000F018
:1015D000020129B10349096841F40011014A11606F
:1015E0007047000008240140E9B100F480722AB17C
:1015F0001C4A126842F480721A4B1A6000F480622E
:101600002AB1184A126842F48062164B1A6000F040
:1016100002022AB3134A121D126842F00202114B51
:101620001B1D1A601CE000F480722AB10D4A12687A
:1016300022F480720B4B1A6000F480622AB1094ACE
:10164000126822F48062074B1A6000F002023AB17D
:10165000044A121D126822F00202024B1B1D1A607E
:1016600070470000042401400349086000BF02499C
:1016700009680029FBD17047080000200448006871
:1016800020B103480068401E01490860704700000F
:101690000800002070B504460D46E1B2064800F08F
:1016A0007FFB00BF40F20771034800F0A2FB002857
:1016B000F8D0204670BD000000380140F0B5034668
:1016C0001C6A5D6A00200DE00126864016403EB18E
:1016D00087000F26BE40B443860001FA06F6344365
:1016E000461CB0B20828EFD3082011E0012686403E
:1016F00016405EB1A0F10806B7000F26BE40B54304
:10170000A0F10806B60001FA06F63543461CB0B251
:101710001028EBD31C625D62F0BD81617047F0B5AB
:1017200004460D4616462168E268002019E00127AC
:1017300087401F409FB14FEA400C032707FA0CF780
:10174000B943470005FA07F739434FEA400C03272E
:1017500007FA0CF7BA43470006FA07F73A43471C63
:10176000B8B21028E3D32160E260F0BDF0B50C46BA
:101770001546012C03D146681E43466002E04668C8
:101780009E434660826800210DE001268E401E4087
:101790003EB14F000326BE40B2434E0005FA06F6A6
:1017A00032434E1CB1B21029EFD38260F0BD00006D
:1017B00000F090FAFFF776F8FFF702F9FFF73AF832
:1017C0000120FFF7FBFE3CE00220FFF777FE00BFA1
:1017D0000220FFF77BFE0128FAD11A4800681A4957
:1017E000088008460088FEF78BFD81464FF08B414C
:1017F000FEF7D6FC0446FEF788FD07464FF066323A
:10180000124BFEF70BFD0546FEF792FD10490860EE
:101810000D4801880FA0FFF723F90D480068FEF777
:1018200074FD044622460B4610A0FFF719F915482F
:10183000006880F00800134908604FF4FA70FFF761
:1018400013FFC1E74C2401400000002066660A40F7
:1018500004000020746865206164635F76616C75C4
:1018600065312069732025640D0A000074686520C5
:10187000766F6C5F76616C75656C20697320256688
:101880000D0A0000140400482449496821F440412D
:10189000224A51601146096B21F4807111630528B9
:1018A00039D2DFE800F0030A14202C001B49096B31
:1018B00021F48071194A11632EE018494968174ACA
:1018C00051601146096B41F48071116324E01349A2
:1018D000496841F48041114A51601146096B41F455
:1018E0008071116318E00D49496841F400410B4AC9
:1018F00051601146096B41F4807111630CE0074996
:10190000496841F44041054A51601146096B41F470
:101910008071116300E000BF00BF704700100240FB
:101920002DE9F04F8FB004464FF0000CE046002048
:10193000002200258146CDF838900021CDF8349062
:10194000CDF83090CDF82C900023CDF82890CDF82C
:101950002490CDF82090002600270FF24C2999E81A
:10196000004CD9F80C90CDE905BECDF810A0CDF80B
:101970001C900FF2382ADAE9009ACDE9029A0FF2A8
:101980002C2ADAE9009ACDE9009ADFF82C92D9F8EE
:101990000490C9F3810CBCF1000F06D0BCF1010F1B
:1019A00005D0BCF1020F3FD103E0844A3EE0834AF8
:1019B0003CE0DFF80492D9F80490C9F38343DFF8E0
:1019C000F891D9F80490C9F3C069CDF82890DDF8F2
:1019D0002890B9F1000F01D0113300E09B1CDFF813
:1019E000D891D9F80490C9F30049CDF82490DDF8D6
:1019F0002490B9F1000F12D0DFF8BC91D9F82C90E7
:101A000009F00F0909F10109CDF82090DFF8ACA128
:101A1000DDF82090BAFBF9F909FB03F203E0DFF8E7
:101A2000A09103FB09F201E0644A00BF00BFDFF8A8
:101A30008891D9F80490C9F303160DF1100919F82B
:101A4000067022FA07F5DFF87091D9F80490C9F30F
:101A500002260DF1080919F8067025FA07F9CDF8E4
:101A60003890DFF85491D9F80490C9F3C2261DF8D4
:101A7000067025FA07F1072C72D2DFE804F004069D
:101A8000080A0C475B00104689E0284687E00E985C
:101A900085E0084683E0DFF82091D9F8309009F41A
:101AA0008079B9F5807F04D0DFF81891CDF83490B3
:101AB0002AE0DFF80491D9F80490C9F38138B8F12D
:101AC000000F09D0B8F1010F0BD0B8F1020F0DD003
:101AD000B8F1030F16D110E04FEA5109CDF8349058
:101AE00011E04FEA9109CDF834900CE04FF006096F
:101AF000B1FBF9F9CDF8349005E04FEAD109CDF802
:101B0000349000E000BF00BF0D9848E0DFF8A890D7
:101B1000D9F8309009F04009B9F1400F04D048F2EB
:101B20001209CDF8309003E04FF40049CDF8309021
:101B30000C9834E0DFF88090D9F8309009F0030970
:101B4000B9F1000F01D10B9126E0DFF86C90D9F8C4
:101B5000309009F00309B9F1010F02D10B921BE09B
:101B60001CE0DFF85490D9F8309009F00309B9F17E
:101B7000020F04D14FF40049CDF82C900CE0DFF8AF
:101B80003890D9F8309009F00309B9F1030F03D167
:101B9000DFF82890CDF82C900B9800E000BF00BF34
:101BA0000FB0BDE8F08F0000000000000000000052
:101BB00001020304060708090010024000127A001F
:101BC00000093D00809FD500064A02EB901109688C
:101BD00000F01F0301229A401143024B03EB9012C5
:101BE0001160704700100240064A02EB901109682C
:101BF00000F01F0301229A409143024B03EB901225
:101C00001160704700100240064A02EB901109680B
:101C100000F01F0301229A401143024B03EB901284
:101C2000116070470010024000200021254A126810
:101C300042F48032234B1A6000BF401C214A1268D4
:101C400002F4003111B9B0F5006FF6D11D4A1268E7
:101C500002F4003202B970471A4A5268194B5A60AE
:101C60001A4652685A601A4652685A601A465268B2
:101C7000154B1A40134B5A601A46526842F4E81248
:101C80005A601A46126842F080721A6000BF0D4A0C
:101C9000126802F00072002AF9D00A4A526822F053
:101CA0000302084B5A601A46526842F002025A6018
:101CB00000BF044A526802F00802002AF9D000BFAF
:101CC000C9E7000000100240FFFFC27710B5FFF720
:101CD000ABFF10BD10B5124800684FF47A71B0FB2D
:101CE000F1F4601EB0F1807F01D301200FE0601E8F
:101CF0004FF0E02148610F214FF0FF30FEF702FE68
:101D000000204FF0E021886107200861002008B121
:101D100000BFFEE70021481EFEF7F4FD10BD0000E5
:101D20000C0000202DE9F04704460D460027B84678
:101D3000B94600261948204438B1B0F5744F09D18E
:101D40000620FFF7EDFD074605E00220FFF7E8FD5E
:101D5000074600E000BF00BF206800F4004070B1FB
:101D6000780000EB5500B0FBF5F64FF6F07006EA90
:101D70000008C6F3420948EA0900E0600CE007EBFE
:101D80005500B0FBF5F64FF6F07006EA000806F0D5
:101D90000F0948EA0900E060BDE8F08700BCFFBF1A
:101DA000C1F308028262704710B504460D48204412
:101DB00058B1B0F5744F11D140F20E30FFF724FF47
:101DC00040F20E30FFF710FF09E040F21140FFF73C
:101DD0001BFF40F21140FFF707FF00E000BF00BF0C
:101DE00010BD000000BCFFBF016841F001010160AF
:101DF000704710B5024602EB9110006801F01F0415
:101E00000123A340184008B1012010BD0020FCE7C9
:101E1000026822F00402026002680A43026070470E
:101E2000026822F00802026002680A4302607047FA
:101E3000501E00080000002014000000800A000866
:101E4000641E00081400002004040000900A00082A
:101E500000000000000000000000000000A24A0492
:041E6000000000007E
:040000050800017D71
:00000001FF
