:020000040800F2
:10000000480400207D0100082D020008CB010008F3
:1000100029020008C5010008F103000800000000E3
:100020000000000000000000000000003102000895
:10003000C9010008000000002F0200083302000878
:100040009701000897010008970100089701000830
:100050009701000897010008970100089701000820
:100060009701000897010008970100089701000810
:100070009701000897010008970100089701000800
:100080009701000897010008000000009701000890
:1000900097010008970100089701000897010008E0
:1000A000970100089701000897010008C5020008A1
:1000B0009701000800000000970100080000000000
:1000C0009701000800000000970100089701000850
:1000D0009701000897010008970100080000000040
:1000E00000000000000000009701000897010008D0
:1000F0009701000897010008970100089701000880
:1001000097010008000000000000000097010008AF
:1001100000000000000000000000000000000000DF
:1001200000000000000000000000000000000000CF
:1001300000000000000000000000000000000000BF
:1001400000000000000000000000000000000000AF
:10015000000000000000000097010008970100085F
:100160009701000897010008DFF80CD000F018F89C
:10017000004800477D0500084804002006488047E5
:1001800006480047FEE7FEE7FEE7FEE7FEE7FEE77C
:10019000FEE7FEE7FEE7FEE73D0200086901000812
:1001A000064C074D06E0E06840F0010394E80700C4
:1001B00098471034AC42F6D3FFF7DAFF040C00087E
:1001C000240C000800BFFEE7704700BFFEE70000F8
:1001D00010B540F2125000F0CDFB40F2125000F08A
:1001E000C9FB0823002201210E4800F07EF91023EC
:1001F000002201210B4800F078F908230322002196
:10020000084800F099F9102303220021054800F066
:1002100093F90821034800F066F91021014800F025
:1002200062F910BD0004004800BFFEE77047704748
:10023000704710B500F006F910BD000010B51D485C
:10024000006840F001001B49086000BF19480068C1
:1002500000F002000028F9D016484068164908400E
:1002600014494860084640681449084011494860EC
:100270000846406820F4400048600846006810497D
:1002800008400C4908600846C06A20F00F00C862A8
:100290000846006B40F2431188430649086308464C
:1002A000406B20F0010048630020886000F0E4FB10
:1002B00010BD0000001002400C00FF08FFFFC277D5
:1002C000FFFFF2FE10B51A491A4800F06FFCA0B10A
:1002D000184800F013FCC1B217480488601C164A85
:1002E0001080164801551046008815490978884243
:1002F00003D105210F4800F03FFC12490D4800F0E2
:1003000055FC98B110480478601C0F4A10700F48D3
:10031000015D084800F0F7FB0B4800780C490978AC
:10032000884203D10721034800F026FC10BD0000DD
:1003300005000507003801401A00002024000020B5
:100340001800002007000707190000200000002007
:100350001700002010B540F2115000F00BFB40F2E6
:100360000E6000F007FB4FF4007201214FF0904047
:1003700000F088F84FF4806201214FF0904000F0C7
:1003800081F84FF40073012202214FF0904000F0F9
:10039000ACF84FF40073012200214FF0904000F0C0
:1003A000CBF84FF48063012202214FF0904000F01F
:1003B0009CF84FF48063012200214FF0904000F040
:1003C000BBF80A4800F0A4FB4FF4E131074800F005
:1003D00057FB0821054800F00DFC0421034800F0FC
:1003E00001FC024800F0B4FB10BD000000380140E1
:1003F00000BFFEE7014A024900F013B85D0400089F
:100400002000002002E008C8121F08C1002AFAD10B
:1004100070477047002001E001C1121F002AFBD184
:1004200070472DE9F04116460F460446002503E0CB
:100430003946B047641C6D1C20780028F8D1284646
:10044000BDE8F0810448006820B103480068401E00
:1004500001490860704700001C00002070B5044688
:100460000D46E1B2064800F04EFB00BF40F20771B6
:10047000034800F072FB0028F8D0204670BD000051
:1004800000380140F0B503461C6A5D6A00200DE0AB
:100490000126864016403EB187000F26BE40B44379
:1004A000860001FA06F63443461CB0B20828EFD3A2
:1004B000082011E00126864016405EB1A0F1080632
:1004C000B7000F26BE40B543A0F10806B60001FAFA
:1004D00006F63543461CB0B21028EBD31C625D62B1
:1004E000F0BD8162704781617047F0B504460D46EA
:1004F00016462168E268002019E0012787401F4066
:100500009FB14FEA400C032707FA0CF7B9434700A5
:1005100005FA07F739434FEA400C032707FA0CF7AF
:10052000BA43470006FA07F73A43471CB8B2102807
:10053000E3D32160E260F0BDF0B50C461546012C16
:1005400003D146681E43466002E046689E4346600B
:10055000826800210DE001268E401E403EB14F0012
:100560000326BE40B2434E0005FA06F632434E1C47
:10057000B1B21029EFD38260F0BD0000FFF728FE72
:10058000FFF7E8FE002211461B2000F04DF807217E
:10059000174800F0FEFA00BF16480078164909789F
:1005A0008842F9DB00BF40F20671114800F0D5FA2D
:1005B0000028F8D008211148FFF793FF05210C48C7
:1005C00000F0E7FA00BF0E4800880E49097888421B
:1005D000F9DB0B4800880B490978884202D10AA050
:1005E000FFF708FF10210548FFF77BFF00BFFEE77C
:1005F00000380140190000201700002000040048C6
:100600001A000020180000205553415254207265F2
:100610006365697665207375636365737366756C6E
:100620006C79210A0D000000F0B50B460021002472
:100630000025244E366806F4E066B6F5E06F02D178
:1006400000BF042526E01F4E366806F4E066B6F5C6
:10065000C06F02D1012403251CE01A4E366806F44F
:10066000E066B6F5A06F02D10224022512E0154E15
:10067000366806F4E066B6F5806F02D103240125E2
:1006800008E0104E366806F4E066B6F5407F01D10A
:1006900004240025C4F1040603FA06F1C5F1040799
:1006A0000F26FE40164031430901074E315400F039
:1006B0001F070126BE404711BF0007F1E027C7F81A
:1006C0000061F0BD0CED00E000E400E02DE9F04F2A
:1006D0008FB004464FF0000CE046002000220025B9
:1006E0008146CDF838900021CDF83490CDF8309087
:1006F000CDF82C900023CDF82890CDF82490CDF89B
:100700002090002600270FF24C2999E8004CD9F8D8
:100710000C90CDE905BECDF810A0CDF81C900FF2DD
:10072000382ADAE9009ACDE9029A0FF22C2ADAE99E
:10073000009ACDE9009ADFF82C92D9F80490C9F319
:10074000810CBCF1000F06D0BCF1010F05D0BCF14B
:10075000020F3FD103E0844A3EE0834A3CE0DFF8E9
:100760000492D9F80490C9F38343DFF8F891D9F8DB
:100770000490C9F3C069CDF82890DDF82890B9F14C
:10078000000F01D0113300E09B1CDFF8D891D9F89D
:100790000490C9F30049CDF82490DDF82490B9F114
:1007A000000F12D0DFF8BC91D9F82C9009F00F0996
:1007B00009F10109CDF82090DFF8ACA1DDF8209017
:1007C000BAFBF9F909FB03F203E0DFF8A09103FBA0
:1007D00009F201E0644A00BF00BFDFF88891D9F850
:1007E0000490C9F303160DF1100919F8067022FAE6
:1007F00007F5DFF87091D9F80490C9F302260DF1DE
:10080000080919F8067025FA07F9CDF83890DFF8CD
:100810005491D9F80490C9F3C2261DF8067025FA40
:1008200007F1072C72D2DFE804F00406080A0C472F
:100830005B00104689E0284687E00E9885E0084670
:1008400083E0DFF82091D9F8309009F48079B9F588
:10085000807F04D0DFF81891CDF834902AE0DFF8DB
:100860000491D9F80490C9F38138B8F1000F09D088
:10087000B8F1010F0BD0B8F1020F0DD0B8F1030F92
:1008800016D110E04FEA5109CDF8349011E04FEA4B
:100890009109CDF834900CE04FF00609B1FBF9F95D
:1008A000CDF8349005E04FEAD109CDF8349000E05E
:1008B00000BF00BF0D9848E0DFF8A890D9F830904D
:1008C00009F04009B9F1400F04D048F21209CDF8FF
:1008D000309003E04FF40049CDF830900C9834E0AC
:1008E000DFF88090D9F8309009F00309B9F1000FD2
:1008F00001D10B9126E0DFF86C90D9F8309009F027
:100900000309B9F1010F02D10B921BE01CE0DFF8E3
:100910005490D9F8309009F00309B9F1020F04D1CD
:100920004FF40049CDF82C900CE0DFF83890D9F85E
:10093000309009F00309B9F1030F03D1DFF82890D3
:10094000CDF82C900B9800E000BF00BF0FB0BDE8C1
:10095000F08F00000000000000000000010203040E
:10096000060708090010024000127A0000093D0045
:10097000809FD500064A02EB9011096800F01F0322
:1009800001229A401143024B03EB90121160704711
:1009900000100240064A02EB9011096800F01F03A4
:1009A00001229A409143024B03EB90121160704771
:1009B00000100240064A02EB9011096800F01F0384
:1009C00001229A401143024B03EB901211607047D1
:1009D0000010024000200021254A126842F48032B3
:1009E000234B1A6000BF401C214A126802F40031F8
:1009F00011B9B0F5006FF6D11D4A126802F4003249
:100A000002B970471A4A5268194B5A601A4652681E
:100A10005A601A4652685A601A465268154B1A4074
:100A2000134B5A601A46526842F4E8125A601A464A
:100A3000126842F080721A6000BF0D4A126802F01C
:100A40000072002AF9D00A4A526822F00302084BC9
:100A50005A601A46526842F002025A6000BF044AC5
:100A6000526802F00802002AF9D000BFC9E700006E
:100A700000100240FFFFC27710B5FFF7ABFF10BDBB
:100A80002DE9F04704460D460027B846B946002632
:100A90001948204438B1B0F5744F09D10620FFF74A
:100AA00015FE074605E00220FFF710FE074600E0AE
:100AB00000BF00BF206800F4004070B1780000EB78
:100AC0005500B0FBF5F64FF6F07006EA0008C6F3E5
:100AD000420948EA0900E0600CE007EB5500B0FB72
:100AE000F5F64FF6F07006EA000806F00F0948EA3E
:100AF0000900E060BDE8F08700BCFFBF0146486A1E
:100B0000C0F308007047C1F308028262704700001A
:100B100010B504460D48204458B1B0F5744F11D1BA
:100B200040F20E30FFF746FF40F20E30FFF732FF83
:100B300009E040F21140FFF73DFF40F21140FFF79E
:100B400029FF00E000BF00BF10BD000000BCFFBFD8
:100B5000016841F001010160704710B5024602EBE7
:100B60009110006801F01F040123A340184008B150
:100B7000012010BD0020FCE710B5C1F38912825896
:100B800001F01F040123A3409A43C1F38913C2500B
:100B900010BD10B5C1F38912825801F01F04012362
:100BA000A3401A43C1F38913C25010BD70B5024669
:100BB00000230024C1F38910105801F01F060125FD
:100BC000B54000EA050302EB91500068C1F304460A
:100BD0000125B54000EA050414B10BB1012070BD38
:100BE0000020FCE7026822F00402026002680A4367
:100BF00002607047026822F00802026002680A433D
:100C000002607047240C000800000020240000004F
:100C100004040008480C00082400002024040000FC
:100C200014040008555341525420696E7465727261
:100C300075707420746573740A0D0016200000002E
:080C40000000000000000000AC
:040000050800017D71
:00000001FF
