:020000040800F2
:10000000580400207D01000851020008EF0100089B
:100010004D020008E9010008850300080000000007
:100020000000000000000000000000005502000871
:10003000ED0100080000000053020008570200080C
:100040009701000897010008970100089701000830
:100050009701000897010008970100089701000820
:100060009701000897010008970100089701000810
:100070009701000897010008970100089701000800
:100080009701000897010008000000009701000890
:1000900097010008970100089701000897010008E0
:1000A00097010008970100089701000897010008D0
:1000B0009701000800000000970100080000000000
:1000C0009701000800000000970100089701000850
:1000D0009701000897010008970100080000000040
:1000E00000000000000000009701000897010008D0
:1000F0009701000897010008970100089701000880
:1001000097010008000000000000000097010008AF
:1001100000000000000000000000000000000000DF
:1001200000000000000000000000000000000000CF
:1001300000000000000000000000000000000000BF
:1001400000000000000000000000000000000000AF
:10015000000000000000000097010008970100085F
:100160009701000897010008DFF80CD000F02AF88A
:1001700000480047D107000858040020064880477F
:1001800006480047FEE7FEE7FEE7FEE7FEE7FEE77C
:10019000FEE7FEE7FEE7FEE76102000869010008EE
:1001A00040EA01039B0703D009E008C9121F08C0F9
:1001B000042AFAD203E011F8013B00F8013B521E79
:1001C000F9D27047064C074D06E0E06840F00103A5
:1001D00094E8070098471034AC42F6D3FFF7C8FF05
:1001E000EC0D00080C0E000800BFFEE7704700BFD2
:1001F000FEE7000010B540F2125000F0DBFC40F2C8
:10020000125000F0D7FC0823002201210E4800F014
:1002100096FA1023002201210B4800F090FA0823DF
:1002200003220021084800F0B1FA10230322002124
:10023000054800F0ABFA0821034800F07EFA1021CF
:10024000014800F07AFA10BD0004004800BFFEE744
:1002500070477047704710B500F020F910BD0000DE
:1002600010B51D48006840F001001B49086000BF40
:100270001948006800F002000028F9D016484068CC
:100280001649084014494860084640681449084027
:10029000114948600846406820F44000486008461C
:1002A0000068104908400C4908600846C06A20F000
:1002B0000F00C8620846006B40F2431188430649AC
:1002C00008630846406B20F0010048630020886006
:1002D00000F0F2FC10BD0000001002400C00FF080E
:1002E000FFFFC277FFFFF2FE10B540F2115000F0A1
:1002F00061FC40F20E6000F05DFC4FF400720121E1
:100300004FF0904000F0E8F94FF4806201214FF087
:10031000904000F0E1F94FF40073012202214FF008
:10032000904000F00CFA4FF40073012200214FF0CE
:10033000904000F02BFA4FF48063012202214FF02D
:10034000904000F0FCF94FF48063012200214FF04F
:10035000904000F01BFA0A4800F0F4FC4FF4E13141
:10036000074800F0ADFC0821054800F037FD0421E6
:10037000034800F02BFD024800F014FD10BD000002
:100380000038014000BFFEE70FB4054B10B503A9CC
:10039000044A029800F017F810BC5DF814FB000046
:1003A000B10600084800002002E008C8121F08C17A
:1003B000002AFAD170477047002001E001C1121FE6
:1003C000002AFBD170472DE9F84F9946924688469E
:1003D0000546002706E025280AD051464A469047A0
:1003E0006D1C7F1C28780028F5D13846BDE8F88FB1
:1003F000002315F8011F18462E2915D115F8011FE5
:1004000004232A290DD06FF02F022978A1F130049E
:10041000092C09D800EB800002EB400008446D1C59
:10042000F3E758F8040B6D1C2A78002ADDD0632A04
:1004300007D0732A0FD0104651464A4690477F1C7A
:100440002AE018F8042B8DF8002000218DF8011007
:100450006E46012103E058F8046B4FF0FF315A0754
:100460004FF0000401D409E0641C84420BDA8C4292
:10047000FADB325D002AF7D105E0641C8C42FCDB1C
:10048000305D0028F9D1274404E016F8010B5146ED
:100490004A469047641EF8D26D1CA3E704480068E2
:1004A00020B103480068401E014908607047000001
:1004B0004400002000EB8001064A02EB81018968BC
:1004C00041F0010100EB8002024B03EB82029160DC
:1004D000704700000000024000EB8001064A02EB7A
:1004E0008101896821F0200100EB8002024B03EBBF
:1004F00082029160704700000000024000EB800122
:10050000144A02EB8101896821F0010100EB8002AD
:10051000104B03EB82029160002100EB800203EBA1
:100520008202916000EB800203EB8202D16000EB5B
:10053000800203EB8202116100EB800203EB820276
:1005400051611946496883000F229A401143014ABC
:10055000516070470000024010B50246054B1B6811
:10056000940001FA04F423400BB1012000E00020C4
:1005700010BD0000000002400FB410B500EB800376
:10058000414C04EB8303039A1A6100EB800304EBF4
:100590008303069A5A6100EB800304EB83030A9AF3
:1005A000DA6000EB8002234603EB8202916821F4BB
:1005B0007C51079B049A1A430B9B1A43114300EB8F
:1005C0008002234603EB82029160059A62B900EB38
:1005D000800203EB8202926842F0400200EB80034B
:1005E00004EB83039A600DE000EB8002264B03EBE3
:1005F0008202926822F0400200EB8003224C04EB5E
:1006000083039A60089A72B900EB80021E4B03EBD9
:100610008202926842F0800200EB80031A4C04EBE5
:1006200083039A600DE000EB8002174B03EB82021C
:10063000926822F0800200EB8003134C04EB8303EA
:100640009A60099A72B900EB80020F4B03EB8202A9
:10065000926822F0100200EB80030B4C04EB830342
:100660009A600DE000EB8002074B03EB8202926878
:1006700042F0100200EB8003034C04EB83039A600A
:1006800010BC5DF814FB00000000024000EB80018C
:10069000064A02EB8101896821F4804100EB800267
:1006A000024B03EB820291607047000000000240A1
:1006B00070B504460D46E1B2064800F03FFB00BFAE
:1006C00040F20771034800F072FB0028F8D0204682
:1006D00070BD000000380140F0B503461C6A5D6A39
:1006E00000200DE00126864016403EB187000F260F
:1006F000BE40B443860001FA06F63443461CB0B24D
:100700000828EFD3082011E00126864016405EB18C
:10071000A0F10806B7000F26BE40B543A0F10806B9
:10072000B60001FA06F63543461CB0B21028EBD3EA
:100730001C625D62F0BD8162704781617047F0B5F7
:1007400004460D4616462168E268002019E001279C
:1007500087401F409FB14FEA400C032707FA0CF770
:10076000B943470005FA07F739434FEA400C03271E
:1007700007FA0CF7BA43470006FA07F73A43471C53
:10078000B8B21028E3D32160E260F0BDF0B50C46AA
:100790001546012C03D146681E43466002E04668B8
:1007A0009E434660826800210DE001268E401E4077
:1007B0003EB14F000326BE40B2434E0005FA06F696
:1007C00032434E1CB1B21029EFD38260F0BD00005D
:1007D00090B04FF4A06000F0EDF9FFF70BFDFFF7CC
:1007E00083FD3FA0FFF7D0FD08214248FFF7A3FF9C
:1007F0000120FFF783FE01200D903F480A90002062
:100800000C900B9043200E903C48079001200990DB
:10081000002008904FF440500F9018220AA9684613
:10082000FFF7BEFC012007A90EC9FFF7A5FE0120B6
:10083000FFF752FE0120FFF729FF0120FFF73AFEE4
:1008400080212E48283800F0A5FA00BF022101209F
:10085000FFF782FE0028F9D040E00220FFF74EFEAD
:1008600000200D9026480A9000200C900B900A2042
:100870000E902248001F0790012009900020089048
:100880004FF440500F9018220AA96846FFF788FCE1
:10089000022007A90EC9FFF76FFE0220FFF71CFE1A
:1008A0000220FFF7F3FE0220FFF704FE4021134869
:1008B000283800F067FA00BF02210846FFF74CFE17
:1008C0000028F9D00E490FA0FFF75EFD094814304B
:1008D000006880F01000074914310860BDE700008F
:1008E000555341525420444D412054455354210AFC
:1008F0000D000000000400480000002028380140DE
:100900004C0000200A0D25730A0D00002DE9F04F60
:100910008FB004464FF0000CE04600200022002576
:100920008146CDF838900021CDF83490CDF8309044
:10093000CDF82C900023CDF82890CDF82490CDF858
:100940002090002600270FF24C2999E8004CD9F896
:100950000C90CDE905BECDF810A0CDF81C900FF29B
:10096000382ADAE9009ACDE9029A0FF22C2ADAE95C
:10097000009ACDE9009ADFF82C92D9F80490C9F3D7
:10098000810CBCF1000F06D0BCF1010F05D0BCF109
:10099000020F3FD103E0844A3EE0834A3CE0DFF8A7
:1009A0000492D9F80490C9F38343DFF8F891D9F899
:1009B0000490C9F3C069CDF82890DDF82890B9F10A
:1009C000000F01D0113300E09B1CDFF8D891D9F85B
:1009D0000490C9F30049CDF82490DDF82490B9F1D2
:1009E000000F12D0DFF8BC91D9F82C9009F00F0954
:1009F00009F10109CDF82090DFF8ACA1DDF82090D5
:100A0000BAFBF9F909FB03F203E0DFF8A09103FB5D
:100A100009F201E0644A00BF00BFDFF88891D9F80D
:100A20000490C9F303160DF1100919F8067022FAA3
:100A300007F5DFF87091D9F80490C9F302260DF19B
:100A4000080919F8067025FA07F9CDF83890DFF88B
:100A50005491D9F80490C9F3C2261DF8067025FAFE
:100A600007F1072C72D2DFE804F00406080A0C47ED
:100A70005B00104689E0284687E00E9885E008462E
:100A800083E0DFF82091D9F8309009F48079B9F546
:100A9000807F04D0DFF81891CDF834902AE0DFF899
:100AA0000491D9F80490C9F38138B8F1000F09D046
:100AB000B8F1010F0BD0B8F1020F0DD0B8F1030F50
:100AC00016D110E04FEA5109CDF8349011E04FEA09
:100AD0009109CDF834900CE04FF00609B1FBF9F91B
:100AE000CDF8349005E04FEAD109CDF8349000E01C
:100AF00000BF00BF0D9848E0DFF8A890D9F830900B
:100B000009F04009B9F1400F04D048F21209CDF8BC
:100B1000309003E04FF40049CDF830900C9834E069
:100B2000DFF88090D9F8309009F00309B9F1000F8F
:100B300001D10B9126E0DFF86C90D9F8309009F0E4
:100B40000309B9F1010F02D10B921BE01CE0DFF8A1
:100B50005490D9F8309009F00309B9F1020F04D18B
:100B60004FF40049CDF82C900CE0DFF83890D9F81C
:100B7000309009F00309B9F1030F03D1DFF8289091
:100B8000CDF82C900B9800E000BF00BF0FB0BDE87F
:100B9000F08F0000000000000000000001020304CC
:100BA000060708090010024000127A0000093D0003
:100BB000809FD500064A02EB9011096800F01F03E0
:100BC00001229A401143024B03EB901211607047CF
:100BD00000100240064A02EB9011096800F01F0362
:100BE00001229A409143024B03EB9012116070472F
:100BF00000100240064A02EB9011096800F01F0342
:100C000001229A401143024B03EB9012116070478E
:100C10000010024000200021254A126842F4803270
:100C2000234B1A6000BF401C214A126802F40031B5
:100C300011B9B0F5006FF6D11D4A126802F4003206
:100C400002B970471A4A5268194B5A601A465268DC
:100C50005A601A4652685A601A465268154B1A4032
:100C6000134B5A601A46526842F4E8125A601A4608
:100C7000126842F080721A6000BF0D4A126802F0DA
:100C80000072002AF9D00A4A526822F00302084B87
:100C90005A601A46526842F002025A6000BF044A83
:100CA000526802F00802002AF9D000BFC9E700002C
:100CB00000100240FFFFC27710B5FFF7ABFF10BD79
:100CC0002DE9F04704460D460027B846B9460026F0
:100CD0001948204438B1B0F5744F09D10620FFF708
:100CE00015FE074605E00220FFF710FE074600E06C
:100CF00000BF00BF206800F4004070B1780000EB36
:100D00005500B0FBF5F64FF6F07006EA0008C6F3A2
:100D1000420948EA0900E0600CE007EB5500B0FB2F
:100D2000F5F64FF6F07006EA000806F00F0948EAFB
:100D30000900E060BDE8F08700BCFFBFC1F3080216
:100D40008262704710B504460D48204458B1B0F592
:100D5000744F11D140F20E30FFF74CFF40F20E30CD
:100D6000FFF738FF09E040F21140FFF743FF40F280
:100D70001140FFF72FFF00E000BF00BF10BD0000D3
:100D800000BCFFBF826822F04002826082680A4392
:100D900082607047826822F08002826082680A4323
:100DA00082607047016841F001010160704710B531
:100DB000024602EB9110006801F01F040123A340DA
:100DC000184008B1012010BD0020FCE7026822F0A5
:100DD0000402026002680A4302607047026822F05F
:100DE0000802026002680A43026070470C0E0008A5
:100DF000000000204C000000A8030008580E000866
:100E00004C0000200C040000B80300080A0D5553E4
:100E100041525420444D41207265636569766520D6
:100E2000616E64207472616E736D6974206578619F
:100E30006D706C652C20706C6561736520696E70D7
:100E400075742031302062797465733A0A0D0000A0
:080E500000000000000000009A
:040000050800017D71
:00000001FF
