:020000040800F2
:100000007008002005020008CD0300086B030008FB
:10001000C9030008650300088D0400080000000003
:10002000000000000000000000000000FB030008CA
:100030006903000800000000F9030008FD03000840
:100040001F0200081F0200081F0200081F0200080C
:100050001F0200081F0200081F0200081F020008FC
:100060001F0200081F0200081F0200081F020008EC
:10007000C10200081F0200081F0200081F0200083A
:100080001F0200081F020008000000001F020008F5
:100090001F0200081F0200081F0200081F020008BC
:1000A0001F0200081F0200081F0200081F020008AC
:1000B0001F020008000000001F02000800000000EE
:1000C0001F020008000000001F0200081F020008B5
:1000D0001F0200081F0200081F02000800000000A5
:1000E00000000000000000001F0200081F020008BE
:1000F0001F0200081F0200081F0200081F0200085C
:100100001F02000800000000000000001F0200089D
:1001100000000000000000000000000000000000DF
:1001200000000000000000000000000000000000CF
:1001300000000000000000000000000000000000BF
:1001400000000000000000000000000000000000AF
:1001500000000000000000001F0200081F0200084D
:100160001F0200081F02000800F002F800F03AF831
:100170000AA090E8000C82448344AAF10107DA4502
:1001800001D100F02FF8AFF2090EBAE80F0013F01A
:10019000010F18BFFB1A43F001031847F4090000D0
:1001A000140A0000103A24BF78C878C1FAD8520760
:1001B00024BF30C830C144BF04680C6070470000E1
:1001C0000023002400250026103A28BF78C1FBD860
:1001D000520728BF30C148BF0B6070471FB51FBD15
:1001E00010B510BD00F031F81146FFF7F7FF00F031
:1001F0006FFB00F04FF803B4FFF7F2FF03BC00F011
:1002000057F800000948804709480047FEE7FEE725
:10021000FEE7FEE7FEE7FEE7FEE7FEE7FEE7FEE7B6
:1002200004480549054A064B7047000005040008CC
:100230006901000870000020700800207004002090
:1002400070040020704770477047754600F02CF826
:10025000AE4605006946534620F00700854618B0B3
:1002600020B5FFF7DDFFBDE820404FF000064FF05E
:1002700000074FF000084FF0000B21F00701AC46DB
:10028000ACE8C009ACE8C009ACE8C009ACE8C009FA
:100290008D46704710B50446AFF300802046BDE898
:1002A0001040FFF7A8BF0000004870470C00002076
:1002B00001491820ABBEFEE726000200704700008F
:1002C00010B5012000F0B6F901200149087010BDF9
:1002D0000000002010B540F2125000F0CBFB40F2BD
:1002E000096000F0C7FB032000F078FB0123002227
:1002F00003211B4800F0A4FA0121022000F026FA95
:100300004FF46021012000F057F9002000F00AF9B5
:100310000121084600F0DAF807220821002000F049
:1003200091F90121084600F01DF900F00DF900F0E7
:10033000AFF84FF4A06000F047FB002211460C20FC
:1003400000F0F0FA4FF420614FF4806000F056FAAC
:10035000082000F03BFA012000F04EF910BD00002B
:100360000004004800BFFEE7704700BFFEE7000042
:1003700010B540F2125000F07DFB40F2125000F038
:1003800079FB0823002201210E4800F059FA1023BE
:10039000002201210B4800F053FA08230322002118
:1003A000084800F074FA102303220021054800F0E9
:1003B0006EFA0821034800F041FA1021014800F0CC
:1003C0003DFA10BD0004004800BFFEE77047000082
:1003D00010B5002807DA0A07140E054A00F00F03CB
:1003E0001B1FD45403E00A07130E024A135410BD16
:1003F00018ED00E000E400E07047704710B500F031
:100400000FFA10BD10B51D48006840F001001B49EF
:10041000086000BF1948006800F002000028F9D009
:100420001648406816490840144948600846406824
:1004300014490840114948600846406820F44000CB
:10044000486008460068104908400C4908600846A2
:10045000C06A20F00F00C8620846006B40F24311EA
:100460008843064908630846406B20F00100486352
:100470000020886000F060FB10BD0000001002400A
:100480000C00FF08FFFFC277FFFFF2FE00BFFEE790
:100490000D48006840F008000B49086000BF0A489A
:1004A000006800F008000028F9D10748006840F013
:1004B00004000549086000BF0348006800F004001C
:1004C0000028F9D17047000008240140012802D01B
:1004D000022821D10EE0124A13684A1E23EA025272
:1004E0000F4B1A601A4613684A1E43EA02520C4B1D
:1004F0001A6012E00A4A0C3213684A1E23EA0252BA
:10050000074B0C331A601A4613684A1E43EA02521C
:10051000034B0C331A6000E000BF00BF70470000BF
:100520002C24014030B10749096841F40061054AB3
:10053000116005E00349096821F40061014A116076
:1005400070470000082401400548006800F00100E1
:1005500028B90348006840F001000149086070476D
:100560000824014091B100F001022AB1114A126839
:1005700042F480120F4B1A6000F00202C2B10D4A21
:10058000126842F400420B4B1A6011E000F00102C5
:100590002AB1084A126822F48012064B1A6000F051
:1005A00002022AB1034A126822F40042014B1A6087
:1005B0007047000008240140012802D0022816D10B
:1005C0000AE00C4A126822F460220A4B1A601A46AA
:1005D00012680A431A600BE0064A126822F4E042ED
:1005E000044B1A601A4612680A431A6000E000BF02
:1005F00000BF70470824014000F0010129B10C49F7
:10060000096841F040010A4A116000F0020129B175
:100610000749096841F02001054A116000F0040112
:1006200029B10349096841F08001014A116070470E
:1006300004240140024909688143014A116070475E
:100640000024014070B51446122900D1002106286B
:100650000ED2324D2A6800EB80061F25B540AA4312
:1006600000EB800501FA05F52A432C4D2A602AE0AB
:100670000C2812D2294D2D1F2A68851F05EB8506EF
:100680001F25B540AA43851F05EB850501FA05F531
:100690002A43224D2D1F2A6015E0102813D21F4D2A
:1006A000083D2A68A0F10C0505EB85061F25B5401D
:1006B000AA43A0F10C0505EB850501FA05F52A43CF
:1006C000164D083D2A600A2910D2144D243D2B688E
:1006D00001EB41060725B540AB4301EB410504FAA8
:1006E00005F52B430D4D243D2B6015E0122913D247
:1006F0000A4D283D2B68A1F10A0505EB45060725A3
:10070000B540AB43A1F10A0505EB450504FA05F533
:100710002B43024D283D2B6070BD00003424014066
:1007200000F0010129B10849096841F48001064A35
:10073000116000F0020129B10349096841F4001178
:10074000014A11607047000008240140E9B100F43B
:1007500080722AB11C4A126842F480721A4B1A60E5
:1007600000F480622AB1184A126842F48062164B83
:100770001A6000F002022AB3134A121D126842F0F6
:100780000202114B1B1D1A601CE000F480722AB19A
:100790000D4A126822F480720B4B1A6000F48062DA
:1007A0002AB1094A126822F48062074B1A6000F0ED
:1007B00002023AB1044A121D126822F00202024BF0
:1007C0001B1D1A6070470000042401400849096895
:1007D000084A1140064A1160114609680143116038
:1007E00011460968044A1143014A1160704700002C
:1007F00004240140E0FD3FFF0002C000024A1060F7
:10080000121F11607047000028240140034908604E
:1008100000BF024909680029FBD17047040000208D
:100820000448006820B103480068401E0149086080
:1008300070470000040000208162704781617047AA
:10084000F0B504460D4616462168E268002019E01E
:10085000012787401F409FB14FEA400C032707FA4A
:100860000CF7B943470005FA07F739434FEA400C44
:10087000032707FA0CF7BA43470006FA07F73A438B
:10088000471CB8B21028E3D32160E260F0BDF0B598
:100890000C461546012C03D146681E43466002E013
:1008A00046689E434660826800210DE001268E4026
:1008B0001E403EB14F000326BE40B2434E0005FA33
:1008C00006F632434E1CB1B21029EFD38260F0BD60
:1008D00000F036F9FFF74CFDFFF7FCFC0120FFF7B5
:1008E0001FFF1AE00D48007838B100200B4908704E
:1008F00010210B48FFF7A0FF03E010210848FFF785
:100900009DFF07481430006880F008000449143146
:1009100008604FF4FA70FFF779FFE3E7000000206A
:1009200000040048F0B50B46002100240025244EA9
:10093000366806F4E066B6F5E06F02D100BF042524
:1009400026E01F4E366806F4E066B6F5C06F02D1A9
:10095000012403251CE01A4E366806F4E066B6F55D
:10096000A06F02D10224022512E0154E366806F46B
:10097000E066B6F5806F02D10324012508E0104E31
:10098000366806F4E066B6F5407F01D10424002500
:10099000C4F1040603FA06F1C5F104070F26FE4070
:1009A000164031430901074E315400F01F0701265C
:1009B000BE404711BF0007F1E027C7F80061F0BD56
:1009C0000CED00E000E400E002490143024A11603E
:1009D000704700000000FA050CED00E0244949686A
:1009E00021F44041224A51601146096B21F4807183
:1009F0001163052839D2DFE800F0030A14202C0027
:100A00001B49096B21F48071194A11632EE01849C2
:100A10004968174A51601146096B41F480711163AE
:100A200024E01349496841F48041114A516011465C
:100A3000096B41F48071116318E00D49496841F474
:100A400000410B4A51601146096B41F480711163FA
:100A50000CE00749496841F44041054A516011469C
:100A6000096B41F48071116300E000BF00BF704763
:100A700000100240064A02EB9011096800F01F03C3
:100A800001229A401143024B03EB90121160704710
:100A90000010024000200021254A126842F48032F2
:100AA000234B1A6000BF401C214A126802F4003137
:100AB00011B9B0F5006FF6D11D4A126802F4003288
:100AC00002B970471A4A5268194B5A601A4652685E
:100AD0005A601A4652685A601A465268154B1A40B4
:100AE000134B5A601A46526842F4E8125A601A468A
:100AF000126842F080721A6000BF0D4A126802F05C
:100B00000072002AF9D00A4A526822F00302084B08
:100B10005A601A46526842F002025A6000BF044A04
:100B2000526802F00802002AF9D000BFC9E70000AD
:100B300000100240FFFFC27710B5FFF7ABFF10BDFA
:100B400010B5124800684FF47A71B0FBF1F4601EE2
:100B5000B0F1807F01D301200FE0601E4FF0E02153
:100B600048610F214FF0FF30FFF732FC00204FF0BB
:100B7000E021886107200861002008B100BFFEE77E
:100B80000021481EFFF724FC10BD000008000020D3
:100B9000B00B0008000000200C000000A4010008B9
:100BA000BC0B00080C00002064080000C001000815
:0C0BB000000000000000000000A24A0449
:0400000508000205E8
:00000001FF
