:020000040800F2
:10000000680800200502000881030008C5020008F6
:100010007D030008BF020008410400080000000042
:10002000000000000000000000000000AF03000816
:10003000C302000800000000AD030008B10300087F
:100040001F0200081F0200081F0200081F0200080C
:100050001F0200081F0200081F0200081F020008FC
:100060001F0200081F0200081F0200081F020008EC
:100070001F0200081F0200081F0200081F020008DC
:100080001F0200081F020008000000001F020008F5
:100090001F0200081F0200081F0200081F020008BC
:1000A0001F0200081F0200081F0200081F020008AC
:1000B0001F020008000000001F02000800000000EE
:1000C0001F020008000000001F0200081F020008B5
:1000D0001F0200081F0200081F02000800000000A5
:1000E00000000000000000001F0200081F020008BE
:1000F0001F0200081F0200081F0200081F0200085C
:100100001F02000800000000000000001F0200089D
:1001100000000000000000000000000000000000DF
:1001200000000000000000000000000000000000CF
:1001300000000000000000000000000000000000BF
:1001400000000000000000000000000000000000AF
:1001500000000000000000001F0200081F0200084D
:100160001F0200081F02000800F002F800F03AF831
:100170000AA090E8000C82448344AAF10107DA4502
:1001800001D100F02FF8AFF2090EBAE80F0013F01A
:10019000010F18BFFB1A43F001031847C004000009
:1001A000E0040000103A24BF78C878C1FAD852079A
:1001B00024BF30C830C144BF04680C6070470000E1
:1001C0000023002400250026103A28BF78C1FBD860
:1001D000520728BF30C148BF0B6070471FB51FBD15
:1001E00010B510BD00F031F81146FFF7F7FF00F031
:1001F00091F900F04FF803B4FFF7F2FF03BC00F0F1
:1002000057F800000948804709480047FEE7FEE725
:10021000FEE7FEE7FEE7FEE7FEE7FEE7FEE7FEE7B6
:1002200004480549054A064B70470000B903000819
:1002300069010008680000206808002068040020A8
:1002400068040020704770477047754600F02CF82E
:10025000AE4605006946534620F00700854618B0B3
:1002600020B5FFF7DDFFBDE820404FF000064FF05E
:1002700000074FF000084FF0000B21F00701AC46DB
:10028000ACE8C009ACE8C009ACE8C009ACE8C009FA
:100290008D46704710B50446AFF300802046BDE898
:1002A0001040FFF7A8BF000000487047080000207A
:1002B00001491820ABBEFEE726000200704700BFD0
:1002C000FEE7704700BFFEE710B540F2115000F0A6
:1002D00037F94FF40043012200214FF0904000F025
:1002E000D1F810BD10B54FF400414FF0904000F030
:1002F000C1F8A0B90A2000F0A5F84FF400414FF072
:10030000904000F0B7F850B900BF4FF400414FF0F3
:10031000904000F0AFF80028F7D0012010BD002079
:10032000FCE7000010B540F2125000F009F940F26D
:10033000125000F005F90823002201210E4800F0B8
:10034000A1F81023002201210B4800F09BF808239C
:1003500003220021084800F0BCF8102303220021EA
:10036000054800F0B6F80821034800F081F8102194
:10037000014800F07DF810BD0004004800BFFEE712
:100380007047000010B5002807DA0A07140E054A66
:1003900000F00F031B1FD45403E00A07130E024A98
:1003A000135410BD18ED00E000E400E07047704702
:1003B00010B500F051F810BD10B51D48006840F0B0
:1003C00001001B49086000BF1948006800F00200E6
:1003D0000028F9D01648406816490840144948607A
:1003E000084640681449084011494860084640687A
:1003F00020F44000486008460068104908400C4955
:1004000008600846C06A20F00F00C8620846006B0A
:1004100040F243118843064908630846406B20F0C8
:10042000010048630020886000F0ECF810BD000077
:10043000001002400C00FF08FFFFC277FFFFF2FE32
:1004400000BFFEE70349086000BF024909680029B0
:10045000FBD17047000000200448006820B1034829
:100460000068401E0149086070470000000000203D
:100470008161704702461069084008B10120704749
:100480000020FCE7F0B504460D4616462168E268F8
:10049000002019E0012787401F409FB14FEA400C20
:1004A000032707FA0CF7B943470005FA07F7394362
:1004B0004FEA400C032707FA0CF7BA43470006FA45
:1004C00007F73A43471CB8B21028E3D32160E26033
:1004D000F0BDF0B50C461546012C03D146681E430D
:1004E000466002E046689E434660826800210DE057
:1004F00001268E401E403EB14F000326BE40B2434F
:100500004E0005FA06F632434E1CB1B21029EFD365
:100510008260F0BD00F07AF8FFF704FFFFF7D4FE29
:100520000AE0FFF7DFFE0446012C05D1034800680E
:1005300080F0080001490860F3E700001404004857
:10054000064A02EB9011096800F01F0301229A404D
:100550001143024B03EB90121160704700100240F0
:1005600000200021254A126842F48032234B1A6091
:1005700000BF401C214A126802F4003111B9B0F5E5
:10058000006FF6D11D4A126802F4003202B97047BA
:100590001A4A5268194B5A601A4652685A601A46EB
:1005A00052685A601A465268154B1A40134B5A60EB
:1005B0001A46526842F4E8125A601A46126842F02B
:1005C00080721A6000BF0D4A126802F00072002AA1
:1005D000F9D00A4A526822F00302084B5A601A46C0
:1005E000526842F002025A6000BF044A526802F0A8
:1005F0000802002AF9D000BFC9E70000001002403D
:10060000FFFFC27710B5FFF7ABFF10BD10B5124862
:1006100000684FF47A71B0FBF1F4601EB0F1807F96
:1006200001D301200FE0601E4FF0E02148610F214F
:100630004FF0FF30FFF7A6FE00204FF0E021886169
:1006400007200861002008B100BFFEE70021481E16
:10065000FFF798FE10BD0000040000207C06000893
:100660000000002008000000A40100088406000823
:100670000800002060080000C00100080000000021
:0406800000A24A0486
:0400000508000205E8
:00000001FF
